:060000000A128A110C280F
:10000800FE00030EF4000A08F5000A128A117E2881
:100018000A128A110F28F601F701F80183010A1262
:100028008A11362983120313A00007302006031D06
:100038001E281F2823287030831603138F040630C8
:1000480083122006031D29282A2830288316031323
:100058000F088F3960388F00053083122006031D82
:10006800362837283D28831603130F088F39503850
:100078008F00043083122006031D432844284A2891
:10008800831603130F088F3940388F00033083120B
:100098002006031D502851285728831603130F08DC
:1000A8008F3930388F00023083122006031D5D28F7
:1000B8005E286428831603130F088F3920388F00B1
:1000C80083122003031D69286A28702883160313E6
:1000D8000F088F3910388F0083122008031D7528E8
:1000E80076287A288F30831603138F058316031317
:1000F8000F140800831203138C1D83288428B12849
:100108000A128A11E3210A128A117008710403196C
:100118008E288F28B1280A128A11FD210A128A1105
:10012800F60061307606031D9A289B28A2287808D5
:100138000A128A110D220A128A11AE286330760635
:10014800031DA728A828AE2877080A128A110D22AD
:100158000A128A11831203138C110B1CB428B528B8
:10016800DA2883120313861BBA28BB28C7281A303B
:10017800F300F830F200F20BBF28F30BBF280000A1
:100188007708013EF70083120313061BCC28CD28FD
:10019800D9281A30F300F830F200F20BD128F30B0B
:1001A800D12800007708FF3EF7000B1075088A0079
:1001B800740E8300FE0E7E0E0900831203132008BE
:1001C8002104031DE828E9280229C3309F050730C8
:1001D80083120313A200A20BEF280000831203135B
:1001E8009F149F18F828F928F5280C131E08A20058
:1001F800A3012208A0002308A10035292003210417
:10020800031D072908291B291F08C33904389F0023
:10021800073083120313A200A20B102900008312D7
:1002280003139F149F1819291A291629F92802302F
:1002380020062104031D2129222935291F08C33935
:1002480008389F00073083120313A200A20B2A2943
:100258000000831203139F149F183329342930296F
:10026800F928080006300A128A1116200A128A1183
:100278000A128A11CA210A128A110A128A11F12154
:100288000A128A11013083120313A0000030A10062
:100298000A128A1171210A128A11F7010030831299
:1002A8000313A000A1000A128A11E1200A128A1180
:1002B800831203132008F800770888000730831298
:1002C8000313A5007C30A400A40B6829A50B68299A
:1002D800000052290A128A110C2883120313201CC9
:1002E800762977297E2905108316031305148316AA
:1002F8000317081483120313A01C832984298B294C
:100308008510831603138514831603178814831224
:100318000313201D90299129982905118316031389
:100328000515831603170815831203139F131F1748
:10033800831603139F121F129F13831203131F1494
:10034800073083120313A200A20BA829000008009B
:1003580083120313A3008316031387128312031354
:10036800231DB729B829BE29220883160313940030
:100378008715C429200822048316031394008711C3
:10038800831203132308210494000800831603131F
:1003980088018312031388018B170B178C1183169E
:1003A80003138C15851683120313A001A101A20162
:1003B80024300A128A11AC210A128A110800831605
:1003C8000313141CE829E929EE290130F000003054
:1003D800F100F029F001F1010800C0308316031381
:1003E80086008B150B10C0309600C0309500811325
:1003F80008000A128A1106220A128A1183120313AC
:100408001308080083160313141C0B2A0C2A062A47
:0E0418000800F0007008831203139300080020
:08400000FF3FFF3FFF3FFF3FC0
:04400E00D420FF3F7C
:00000001FF
