:060000000A128A110C280F
:10000800FE00030EF1000A08F2000A128A115229B2
:100018000A128A110F28F90183010A128A11FB2892
:10002800F30007307306031D1A281B281F28703099
:10003800831603138F0406307306031D242825280E
:100048002B28831603130F088F3960388F0005306B
:100058007306031D302831283728831603130F0829
:100068008F3950388F0004307306031D3C283D2813
:100078004328831603130F088F3940388F00033045
:100088007306031D482849284F28831603130F08B1
:100098008F3930388F0002307306031D54285528D5
:1000A8005B28831603130F088F3920388F007303DA
:1000B800031D5F2860286628831603130F088F39ED
:1000C80010388F007308031D6A286B286F288F303B
:1000D800831603138F05831603130F140800730880
:1000E8007404031D782879289128C33083120313D8
:1000F8009F050830F500F50B7F28831203139F1422
:100108009F188728882884280C131E08F500F601F4
:100118007508F3007608F400C22873037404031DFD
:1001280096289728A928831203131F08C33904386F
:100138009F000830F500F50B9F28831203139F14C6
:100148009F18A728A828A4288828023073067404B2
:10015800031DAF28B028C228831203131F08C33910
:1001680008389F000830F500F50BB82883120313F0
:100178009F149F18C028C128BD2888280800731C10
:10018800C628C728D0288312031305108316031323
:100198000514831603170814F31CD328D428DD2864
:1001A800831203138510831603138514831603170C
:1001B8008814731DE028E128EA2883120313051127
:1001C80083160313051583160317081583120313E3
:1001D8009F131F17831603139F121F129F13831257
:1001E80003131F140830F500F50BF8280800063033
:1001F8000A128A1114200A128A110A128A11252158
:100208000A128A110130F3000030F4000A128A1130
:10021800C3200A128A110030F300F4000A128A116E
:1002280073200A128A117308F9000730F8007D302C
:10023800F700F70B1D29F80B1D290F290A128A113F
:100248000C288316031388018312031388018B1764
:100258000B178C11831603138C158516F301F40103
:10026800F50124300A128A113C210A128A11080069
:10027800F600831603138712761D4329442948295B
:100288007508940087154C29730875049400871124
:10029800760874048312031394000800831203136E
:1002A8008C1D57295829612979080A128A11682151
:1002B8000A128A11831203138C1172088A00710EB4
:1002C8008300FE0E7E0E0900F000700883120313EF
:0402D8009300080087
:08400000FF3FFF3FFF3FFF3FC0
:04400E00D420FF3F7C
:00000001FF
