:060000000A128A110C280F
:10000800FE00030EF2000A08F3000A128A11CA2839
:100018000A128A110F28F601F701F80183010A1262
:100028008A111829F50007307506031D1C281D289C
:1000380021287030831603138F0406307506031DBC
:10004800262827282D28831603130F088F39603890
:100058008F0005307506031D32283328392883168A
:1000680003130F088F3950388F0004307506031DAD
:100078003E283F284528831603130F088F39403838
:100088008F0003307506031D4A284B285128831614
:1000980003130F088F3930388F0002307506031D9F
:1000A800562857285D28831603130F088F392038E0
:1000B8008F007503031D61286228682883160313BF
:1000C8000F088F3910388F007508031D6C286D28AC
:1000D80071288F30831603138F05831603130F14AB
:1000E80008008312031320082104031D7C287D289F
:1000F8009628C3309F05073083120313A200A20B72
:1001080083280000831203139F149F188C288D28BE
:1001180089280C131E08A200A3012208A0002308A6
:10012800A100C92820032104031D9B289C28AF286F
:100138001F08C33904389F00073083120313A20035
:10014800A20BA4280000831203139F149F18AD2844
:10015800AE28AA288D28023020062104031DB528C0
:10016800B628C9281F08C33908389F0007308312EA
:100178000313A200A20BBE280000831203139F14CE
:100188009F18C728C828C4288D280800831203137D
:100198008C1DCF28D028EA280A128A11CB210A12EE
:1001A8008A11F40074088312031388007403031D72
:1001B800DE28DF28E22878089300E9287408031D60
:1001C800E628E728E928770893008C110B1CED280E
:1001D800EE281129861BF128F228FE280D30F1009F
:1001E800FB30F000F00BF628F10BF628FB28770817
:1001F800013EF70083120313061B03290429102963
:100208000D30F100FB30F000F00B0829F10B082944
:100218000D297708FF3EF7000B1073088A00720E4D
:100228008300FE0E7E0E090005300A128A11162080
:100238000A128A110A128A11A6210A128A110A12AE
:100248008A11BF210A128A11013083120313A000F8
:100258000030A1000A128A1150210A128A11F701EE
:10026800003083120313A000A1000A128A1175201E
:100278000A128A11831203132008F800043083122B
:100288000313A5003D30A400A40B4829A50B482959
:1002980034290A128A110C2883120313201C5529A9
:1002A80056295D29051083160313051483160317B1
:1002B800081483120313A01C622963296A29851074
:1002C80083160313851483160317881483120313E4
:1002D800201D6F2970297729051183160313051529
:1002E800831603170815831203139F131F1783160A
:1002F80003139F121F129F13831203131F14083036
:10030800F500F50B85290800F500831603138712FD
:10031800751D8F29902998298312031322088316A3
:10032800031394008715A0298312031320082204BD
:10033800831603139400871175088312031321048D
:10034800940008008316031388018312031388019D
:100358008B170B178C11831603138C1585168312B4
:100368000313A001A101A20124300A128A118821D5
:100378000A128A110800C0308316031386008B15F1
:100388000B10C0309600C0309500811308000A1287
:100398008A11D4210A128A11831203131308080040
:0E03A80083160313141CD929DA29D42908005E
:08400000FF3FFF3FFF3FFF3FC0
:04400E00D420FF3F7C
:00000001FF
