:100000000A128A11EB2F00307005F80000307105DC
:10001000F90080307205FA007F307305FB007B0821
:100020007A0479047804031D162817281F28003045
:10003000F3000030F2000030F1000030F00000303A
:100040007405F80000307505F90080307605FA0077
:100050007F307705FB007B087A0479047804031D60
:10006000322833283B280030F7000030F6000030FB
:10007000F5000030F40077087306031D4928760860
:100080007206031D492875087106031D4928740866
:10009000700603194C284D284F28031050280314CC
:1000A000080006300A168A155A260A128A110A16FC
:1000B0008A15DE230A128A110A168A15FD250A12EC
:1000C0008A110A168A156D230A128A110230F40069
:1000D00001300A168A1563250A128A119130F5003B
:1000E0008030F6000A168A15DD240A128A1183125E
:1000F000031307118714C73083160313C300802826
:10010000C30B7F28832800300A168A154C230A1255
:100110008A110A168A1559230A128A1183160313A3
:10012000CF008312031307158710C73083160313FC
:10013000C3009A28C30B99289D2800300A168A15F7
:100140004C230A128A110A168A1559230A128A1197
:1001500083160313CE00433083120313C1007F3094
:10016000C0000030BF000030BE004030A700A0300B
:10017000A6000030A5000030A400831603134F082A
:10018000C300C401C501C6014608F3004508F200DA
:100190004408F1004308F00001300A168A111221C8
:1001A0000A128A11730883120313AB007208AA00A3
:1001B0007108A9007008A8000A128A155C210A12A9
:1001C0008A11831203132708C5002608C4002508D6
:1001D000C3002408C2000A168A11CA210A128A1111
:1001E00083120313410883160313CA0083120313F7
:1001F000400883160313C900831203133F088316B4
:100200000313C800831203133E0883160313C700A9
:10021000A130A0004A08A4004908A3004808A20091
:100220004708A100D0300A128A11AB210A128A11A4
:10023000F401F40A02300A168A1563250A128A119B
:10024000D030F5000030F6000A168A15DD240A12B7
:100250008A11433083120313C1007F30C000003085
:10026000BF000030BE004030A700A030A600003024
:10027000A5000030A400831603134E08C300C40178
:10028000C501C6014608F3004508F2004408F10024
:100290004308F00001300A168A1112210A128A114D
:1002A000730883120313AB007208AA007108A90037
:1002B0007008A8000A128A155C210A128A1183129A
:1002C00003132708C5002608C4002508C300240816
:1002D000C2000A168A11CA210A128A118312031354
:1002E000410883160313CA008312031340088316C0
:1002F0000313C900831203133F0883160313C800B6
:10030000831203133E0883160313C700A130A00015
:100310004A08A4004908A3004808A2004708A10011
:10032000D0300A128A11AB210A128A110D30F40062
:1003300002300A168A1563250A128A11D030F50098
:100340000030F6000A168A15DD240A128A11772871
:100350000A128A11002883160313BB00A130AE00D5
:10036000D62F253042060319B629B729C1293B08E3
:1003700084004208831380000130A5002508BB07D4
:10038000D62FAF01B001200884000A168A150A2072
:100390000A128A112E3A031DCE29CF29142A3017AA
:1003A0000130A5002508A007BC01BD01032A0A30C1
:1003B000F0000030F100831603133D08F3003C0801
:1003C000F2000A168A1524240A128A11710883166B
:1003D0000313BD007008BC00200884000A168A15AB
:1003E0000A200A128A11D03EA500FF3003180030FF
:1003F000A6002508BC070318BD0A2608BD07013062
:10040000A5002508A007200884000A168A150A20DE
:100410000A128A110A168A157A230A128A110318F7
:10042000122A132AD7291A2ABC01BD0130161A2A0A
:100430003015362A013083160313A007FF3020073A
:1004400084000A168A150A200A128A11C200A50021
:10045000A6012608003A03192E2AD62F2508003AAD
:100460000319E62F663A0319182AD62F00302F05F4
:10047000A50007303005A600250826040319412AE7
:10048000422A932F301E452A462A4A2A0630BC00AB
:100490000030BD002E08840083130008BE00840ACB
:1004A0000008BF00840A0008C000840A0008C100D8
:1004B0000430A5002508AE074108F3004008F2000B
:1004C0003F08F1003E08F0000030F7000030F60071
:1004D0000030F5000030F4000A128A1502200A12DA
:1004E0008A110318742A752A922A83160313410865
:1004F000F3004008F2003F08F1003E08F0000A1641
:100500008A1562230A128A11730883160313C10025
:100510007208C0007108BF007008BE000330AF044D
:100520000030B00483160313B501B6014108F3008F
:100530004008F2003F08F1003E08F0000030F700EC
:100540000030F6000030F5000030F4000A128A1185
:1005500003200A128A110318AE2AAF2A9F2B031018
:1005600083160313400D410D823EB500FF30031882
:100570000030B600FF30B5070318B60AFF30B607E3
:100580000330F0000030F1003608F3003508F200C7
:100590000A168A1524240A128A1171088316031375
:1005A000B6007008B5000A30F7000030F8003608D1
:1005B000FA003508F9000A168A151F270A128A114F
:1005C000780883160313B6007708B500B61FE92A2A
:1005D000EA2AF02AFF30B5070318B60AFF30B6073B
:1005E0003503FF3A0A128A15A1240A128A118312CE
:1005F0000313410883160313BA0083120313400840
:1006000083160313B900831203133F0883160313E1
:10061000B800831203133E0883160313B700410882
:1006200083120313A70083160313400883120313D6
:10063000A600831603133F0883120313A500831635
:1006400003133E0883120313A400831603133A080E
:1006500083120313AB0083160313390883120313A9
:10066000AA0083160313380883120313A900831604
:100670000313370883120313A8000A128A155C219A
:100680000A128A1183120313270883160313BA0070
:1006900083120313260883160313B900831203136E
:1006A000250883160313B800831203132408831646
:1006B0000313B7003A08F3003908F2003808F100D4
:1006C0003708F0003F30F7008030F6000030F500CA
:1006D0000030F4000A128A1502200A128A11031847
:1006E000722B732B7C2BFF3083160313B507031873
:1006F000B60AFF30B6079F2B831603133A08F300A0
:100700003908F2003808F1003708F0004130F700EE
:100710002030F6000030F5000030F4000A128A158F
:1007200002200A128A11031C962B972B9F2B013053
:1007300083160313B5070318B60A0030B6078316ED
:1007400003133D08803AFF0080307F02031DAA2B6F
:100750000D303C020318AD2BAE2BF52B8316031383
:100760003C080A168A119D230A128A118312031368
:100770004108D5004008D4003F08D3003E08D2000D
:1007800083160313410883120313D900831603133E
:10079000400883120313D800831603133F08831203
:1007A0000313D700831603133E0883120313D600E6
:1007B0000A168A11A8250A128A11831203135508F2
:1007C00083160313C1008312031354088316031303
:1007D000C00083120313530883160313BF00831250
:1007E0000313520883160313BE008316031336083F
:1007F000803AFF0080307F02031D002C0A30350252
:100800000318032C042C552C831603134108F30002
:100810004008F2003F08F1003E08F0000030F70009
:100820000030F6000030F5000030F4000A128A11A2
:1008300003200A128A1103181E2C1F2CC72C8316A2
:100840000313410883120313D400831603134008D3
:1008500083120313D300831603133F088312031379
:10086000D200831603133E0883120313D1000A1625
:100870008A1588270A128A11831203135408530415
:1008800052045104031D452C462CC72C8316031318
:100890003608803AFF0080307F02031D512C023061
:1008A0003502031C542C552CC72C831603133A080D
:1008B000F3003908F2003808F1003708F000403042
:1008C000F7008930F6007030F5005F30F4000A124E
:1008D0008A1502200A128A1103186F2C702C792CA9
:1008E000F73083160313B5070318B60AFF30B607AF
:1008F000812CF83083160313B5070318B60AFF30AE
:10090000B60735080A128A15A1240A128A11831221
:100910000313410883160313BA008312031340081C
:1009200083160313B900831203133F0883160313BE
:10093000B800831203133E0883160313B70041085F
:10094000F3004008F2003F08F1003E08F0003A08CA
:10095000F7003908F6003808F5003708F4000A12E5
:100960008A15A4200A128A11730883160313B4008F
:100970007208B3007108B2007008B1000030C10005
:100980000030C0000030BF000030BE004B2D831689
:100990000313410883120313D40083160313400882
:1009A00083120313D300831603133F088312031328
:1009B000D200831603133E0883120313D1000A16D4
:1009C0008A1588270A128A11831203135408831682
:1009D0000313B40083120313530883160313B300E5
:1009E00083120313520883160313B20083120313F6
:1009F000510883160313B1003408F3003308F200E2
:100A00003208F1003108F00000300A168A11122174
:100A10000A128A11730883120313E9007208E800AE
:100A20007108E7007008E60083160313410883127B
:100A30000313ED0083160313400883120313EC0025
:100A4000831603133F0883120313EB00831603136B
:100A50003E0883120313EA000A168A1500240A12BC
:100A60008A1183120313690883160313C1008312CA
:100A70000313680883160313C00083120313670867
:100A800083160313BF008312031366088316031330
:100A9000BE00B501B601C201C20A4208A50001307C
:100AA0000310A50DFF3E031D502D0310250D693EBB
:100AB00084000A168A150A200A128A11A6000A164C
:100AC0008A150A200A128A11A7000A168A150A2016
:100AD0000A128A11A8000A168A150A200A128A1117
:100AE000A90029083402031D7F2D28083302031DA5
:100AF0007F2D27083202031D7F2D2608310203189F
:100B0000822D832D842D8E2D0130A5002508C2074E
:100B10000A304206031D8D2D8E2D4D2D03302F05DD
:100B2000A50000303005A600250826040319992DDC
:100B30009A2D082E3B0884002D308313800001304D
:100B4000A5002508BB07082E4208A50001300310A8
:100B5000A50DFF3E031DA72D0310250D693E840042
:100B60000A168A150A200A128A11F0000A168A1536
:100B70000A200A128A11F1000A168A150A200A129E
:100B80008A11F2000A168A150A200A128A11F30045
:100B90003408F7003308F6003208F5003108F40095
:100BA0000A168A15B9260A128A11730883160313C6
:100BB000BA007208B9007108B8007008B7000030B8
:100BC000F3000030F2000030F1000A30F0003A0883
:100BD000F7003908F6003808F5003708F4000A165F
:100BE0008A15A9250A128A11730883160313BA00FD
:100BF0007208B9007108B8007008B7003B0884009B
:100C00003708303E831380000130A5002508BB075C
:100C10000130C202420A031D0E2E0F2EA42D212EDA
:100C2000831603133B0884003030831380000130A7
:100C3000A5002508BB07FF30B5070318B60AFF302B
:100C4000B6073608803AFF0080307F02031D2A2E47
:100C50000130350203182D2E2E2E102E831603136D
:100C60003D08803AFF0080307F02031D392E093095
:100C70003C02031C3C2E3D2E422E083083160313EB
:100C8000C200462E831603133C08C2004208A5008A
:100C9000A6012508BC022608031CBD03BD024208AC
:100CA0000319532E542E5D2E3B0884002E308313DF
:100CB00080000130A5002508BB0742080A128A15EA
:100CC000A1240A128A118312031341088316031305
:100CD000AD0083120313400883160313AC00831284
:100CE00003133F0883160313AB00831203133E085C
:100CF00083160313AA002D0883120313AB00831677
:100D000003132C0883120313AA00831603132B0862
:100D100083120313A900831603132A0883120313F3
:100D2000A80083160313410883120313A700831638
:100D30000313400883120313A600831603133F080E
:100D400083120313A500831603133E0883120313B3
:100D5000A4000A128A155C210A128A118312031355
:100D60002708D4002608D3002508D2002408D10083
:100D70000A168A1588270A128A1183120313540847
:100D800083160313B400831203135308831603134B
:100D9000B30083120313520883160313B2008312A5
:100DA0000313510883160313B100752F4208A500E1
:100DB00001300310A50DFF3E031DD92E0310250D94
:100DC000693E84000A168A150A200A128A11F00068
:100DD0000A168A150A200A128A11F1000A168A15C3
:100DE0000A200A128A11F2000A168A150A200A122B
:100DF0008A11F3003408F7003308F6003208F500D2
:100E00003108F4000A168A15B9260A128A117308E5
:100E100083160313BA007208B9007108B80070088D
:100E2000B7000030F3000030F2000030F1000A306B
:100E3000F0003A08F7003908F6003808F5003708DE
:100E4000F4000A168A15A9250A128A117308831656
:100E50000313BA007208B9007108B8007008B7002F
:100E60003B0884003708303E831380000130A50022
:100E70002508BB074208A50001300310A50DFF3E61
:100E8000031D3D2F0310250D693E84000A168A15A7
:100E90000A200A128A11F0000A168A150A200A127C
:100EA0008A11F1000A168A150A200A128A11F20024
:100EB0000A168A150A200A128A11F3003408F7006C
:100EC0003308F6003208F5003108F4000A168A15D6
:100ED000A9250A128A11730883160313B400720835
:100EE000B3007108B2007008B1000130C202420ABA
:100EF000031D7B2F7C2FD62E8C2F3B088400303097
:100F0000831380000130A5002508BB07FF30BC0714
:100F10000318BD0AFF30BD073C083D04031D912F97
:100F2000922F7D2FD62F3C083D04031D982F992F1B
:100F3000A72F3408330432043104031DA02FA12F3E
:100F4000A72F0130BC070318BD0A0030BD073D08BC
:100F5000803A803C031DAE2F3C0842020318B12F9B
:100F6000B22FB32FC22F831603133D08803AA5007A
:100F700080302502031DBE2F42083C020318C12FFA
:100F8000C22FC22F0330831603132F05A500003094
:100F90003005A600250826040319CF2FD02FD62F01
:100FA0003B0884002D3083138000BC290130A0074A
:100FB000FF30200784000A168A150A200A128A11B7
:100FC000C2004208031DE52FE62FB1293B0884002B
:100FD00083138001080083120313EE0183160313A9
:100FE000C701C801C901CA01CB01CC01CD01CE01A5
:100FF000CF01D001D101D20183010A128A115128F7
:1010040000307005F80000307105F9008030720579
:10101400FA007F307305FB007B087A0479047804B6
:10102400031D152816281E280030F3000030F20096
:101034000030F1000030F00000307405F80000309A
:101044007505F90080307605FA007F307705FB00DE
:101054007B087A0479047804031D312832283A285D
:101064000030F7000030F6000030F5000030F400E6
:10107400F31F3D283E2862280030F8000030F900B4
:101084000030FA008030FB007008F8027108031C7D
:10109400710F4D284E28F9027208031C720F532851
:1010A4005428FA027308031C730F59285A28FB02A8
:1010B4007B08F3007A08F2007908F1007808F00060
:1010C400F71F652866288A280030F8000030F900E8
:1010D4000030FA008030FB007408F8027508031C25
:1010E400750F75287628F9027608031C760F7B287D
:1010F4007C28FA027708031C770F81288228FB02D8
:101104007B08F7007A08F6007908F5007808F400FF
:101114008030F3068030F70677087302031D9C289D
:1011240076087202031D9C2875087102031D9C2811
:101134007408700203189F28A028A2280310A3286B
:10114400031408000310720D730D83120313A5001A
:101154002508031DAE28AF28B8280030F30000305E
:10116400F2000030F1000030F0005B290310760D2E
:10117400770DA4002408031DC028C128C228AF2865
:10118400F217FF30F005FF30F105FF30F2050030B3
:10119400F305F617FF30F405FF30F505FF30F605CB
:1011A4000030F7050030A3000030A2000030A10099
:1011B4000030A0007F30A502A0302407F800780892
:1011C400A5022030A4000130F8000310A00DA10DE9
:1011D400A20DA30DF80BE72877087302031DFC2862
:1011E40076087202031DFC2875087102031DFC2891
:1011F40074087002031CFF2800290F297408F002E8
:101204007508031C750FF1027608031C760FF202B1
:101214007708031C770FF30220140130F800031041
:10122400F00DF10DF20DF30DF80B11290130A402AC
:10123400031D1D291E29E528A51F212922293C2932
:101244002508803A9F3E0318282929292A29AF28EE
:1012540001300310A30CA20CA10CA00CFF3E031D33
:101264002B290130F8007808A507031D3A293B29EA
:101274002A29532920302502031C412942294E29B9
:10128400AF280130F8000310A00DA10DA20DA30D8D
:10129400F80B45290130A5022508031D52295329BD
:1012A40043292308F3002208F2002108F100200852
:1012B400F00008008312031327088039B1002708BF
:1012C400AC002C07B700A61F682969296A293714BE
:1012D400370803196E296F297E29370A031D7329DC
:1012E40074297C290030A7000030A6000030A50036
:1012F4000030A400A61786290030A7000030A600FD
:101304000030A5000030A4002B088039AC002C0864
:10131400B1062B08AC002C07B600AA1F922993290A
:10132400942936143608031998299929A829360AC4
:10133400031D9D299E29A6290030AB000030AA0078
:101344000030A9000030A800AA17B0290030AB0073
:101354000030AA000030A9000030A80036080319A4
:10136400B429B529BA293708031DB929BA29C329CB
:101374000030A7000030A6000030A5000030A40013
:10138400A02C2408F0002A080A168A1549240A12F7
:101394008A15710883120313BD007008BC003C0851
:1013A400AC00AD01AE01AF012F08B5002E08B400AA
:1013B4002D08B3002C08B2003D08AC00AD01AE010D
:1013C400AF012F08BB002E08BA002D08B9002C0865
:1013D400B8002508F00029080A168A1549240A12BB
:1013E4008A15710883120313BD007008BC003C0801
:1013F400AC00AD01AE01AF012C08B2072D080311FA
:101404000318013E0319072AB3072E080311031812
:10141400013E03190E2AB4072F0803110318013ED5
:101424000319152AB5073D08AC00AD01AE01AF01A3
:101434002C08B8072D0803110318013E0319232AA9
:10144400B9072E0803110318013E03192A2ABA0703
:101454002F0803110318013E0319312ABB0726087C
:10146400F00028080A168A1549240A128A157108F8
:1014740083120313BD007008BC003C08AC00AD012E
:10148400AE01AF012C08B2072D0803110318013E69
:1014940003194D2AB3072E0803110318013E03193B
:1014A400542AB4072F0803110318013E03195B2AB9
:1014B400B5073D08AC00AD01AE01AF012C08B8077B
:1014C4002D0803110318013E0319692AB9072E08D0
:1014D40003110318013E0319702ABA072F080311D8
:1014E4000318013E0319772ABB070830AC00031028
:1014F400B20DB30DB40DB50DAC0B792A2508F0006F
:1015040028080A168A1549240A128A1571088312B2
:101514000313BD007008BC003C08AC003D08AD00DE
:10152400AE01AF012C08B2072D0803110318013EC8
:1015340003199D2AB3072E0803110318013E03194A
:10154400A42AB4072F0803110318013E0319AB2A78
:10155400B5072408F00029080A168A1549240A1236
:101564008A15710883120313BD007008BC003C087F
:10157400AC003D08AD00AE01AF012C08B2072D0848
:1015840003110318013E0319C82AB3072E080311D7
:101594000318013E0319CF2AB4072F0803110318B7
:1015A400013E0319D62AB5070830AC000310B20D6A
:1015B400B30DB40DB50DAC0BD82A2408F0002808DF
:1015C4000A168A1549240A128A157108831203130C
:1015D400BD007008BC003C08AC003D08AD00AE0185
:1015E400AF012C08B2072D0803110318013E03199B
:1015F400FC2AB3072E0803110318013E0319032B19
:10160400B4072F0803110318013E03190A2BB50769
:101614002508F0002A080A168A1549240A128A1590
:10162400710883120313BD007008BC003C08AC00B1
:101634003D08AD00AE01AF012C08B8072D08031119
:101644000318013E0319272BB9072E0803110318A9
:10165400013E03192E2BBA072F0803110318013E6C
:101664000319352BBB072608F00029080A168A152A
:1016740049240A128A15710883120313BD007008E5
:10168400BC003C08AC003D08AD00AE01AF012C0825
:10169400B8072D0803110318013E0319522BB9078B
:1016A4002E0803110318013E0319592BBA072F08FA
:1016B40003110318013E0319602BBB072608F00031
:1016C4002A080A168A1549240A128A1571088312EF
:1016D4000313BD007008BC003C08AC003D08AD001D
:1016E400AE01AF0108300310AC0DAD0DAE0DAF0D62
:1016F400FF3E031D752B2C08B8072D080311031892
:10170400013E0319862BB9072E0803110318013E65
:1017140003198D2BBA072F0803110318013E03196F
:10172400942BBB073208AC003308AD003408AE007C
:101734003508AF0018300310AF0CAE0CAD0CAC0C78
:10174400FF3E031D9D2B2C08B8072D080311031819
:10175400013E0319AE2BB9072E0803110318013EED
:101764000319B52BBA072F0803110318013E0319F7
:10177400BC2BBB070830AC000310B20DB30DB40D85
:10178400B50DAC0BBE2B37083607AC00AD01AD0D63
:101794002C08823EBC002D080318013EFF3EBD000C
:1017A400F02B0130AC000310B80DB90DBA0DBB0D10
:1017B400AC0BD52BB51FDF2BE02BE12B38140130FC
:1017C400AC000310B20DB30DB40DB50DAC0BE32B8F
:1017D400FF30BC070318BD0AFF30BD07BA1FF32B47
:1017E400F42BD32BB601B51FF82BF92B152CFF3096
:1017F4003205AC00FF303305AD00FF303405AE00D8
:101804007F303505AF002F082E042D042C04031956
:101814000C2C0D2C102CB601B60A152C381C132CCC
:10182400142C152C0D2C36080319192C1A2C4B2C9E
:101834000130B807003003180130B907003003182D
:101844000130BA07003003180130BB073B1C2B2CB6
:101854002C2C4B2C3808AC003908AD003A08AE00EB
:101864003B08AF000130B0002F0DAF0CAE0CAD0C37
:10187400AC0CB00B362C2F08BB002E08BA002D0878
:10188400B9002C08B8000130BC070318BD0A0030A9
:10189400BD073D08803AFF0080307F02031D542CB1
:1018A400FF303C02031C572C582C632C7F308312CE
:1018B4000313BB008030BA000030B9000030B80018
:1018C400942C831203133D08803AFF0080307F027A
:1018D400031D6E2C01303C020318712C722C7E2CDB
:1018E400003083120313BB000030BA000030B9008B
:1018F4000030B800B101942C831203133C08B700E4
:10190400FF30B805FF30B9057F30BA050030BB059C
:10191400371C8D2C8E2C8F2CBA173708AC00031073
:101924002C0CBB003108AC002C08BB043B08A700FE
:101934003A08A6003908A5003808A4000800831254
:101944000313D000D01FA72CA82C552ED009D00AE1
:101954005008803A123E031CB02CB12C992D0A3049
:10196400F7000030F8005008F200F301F21BF30313
:101974006430F0000030F1000A168A1102200A12C5
:101984008A157108FA007008F9000A168A151F27CB
:101994000A128A15770883120313C2000130031058
:1019A400C20DFF3E031DD12C0310420D593E84008D
:1019B4000A168A150A200A128A15C3000A168A15FD
:1019C4000A200A128A15C4000A168A150A200A1265
:1019D4008A15C5000A168A150A200A128A15C60035
:1019E4004608A7004508A6004408A5004308A4002B
:1019F4006430F7000030F8005008F900FA01F91BD0
:101A0400FA030A168A151F270A128A157708831201
:101A14000313C70001300310C70DFF3E031D0D2D36
:101A24000310470D7D3E84000A168A150A200A1207
:101A34008A15C8000A168A150A200A128A15C900CE
:101A44000A168A150A200A128A15CA000A168A1565
:101A54000A200A128A15CB004B08AB004A08AA00D8
:101A64004908A9004808A8000A128A155C210A122C
:101A74008A15831203132708CF002608CE002508F1
:101A8400CD002408CC000A30F0000030F1005008EA
:101A9400F200F301F21BF3030A168A1102200A1260
:101AA4008A15700883120313C20001300310C20D9B
:101AB400FF3E031D582D0310420D353E84000A16C7
:101AC4008A150A200A128A15C3000A168A150A20E2
:101AD4000A128A15C4000A168A150A200A128A15DF
:101AE400C5000A168A150A200A128A15C600460875
:101AF400A7004508A6004408A5004308A4004F0811
:101B0400AB004E08AA004D08A9004C08A8000A1210
:101B14008A155C210A128A15831203132708C1004F
:101B24002608C0002508BF002408BE00FF2F500867
:101B3400803A753E031C9F2DA02D282E0A30F000FC
:101B44000030F1005008F200F301F21BF3030A160F
:101B54008A1102200A128A15700883120313C20024
:101B640001300310C20DFF3E031DB32D0310420DBF
:101B7400353E84000A168A150A200A128A15C30003
:101B84000A168A150A200A128A15C4000A168A152A
:101B94000A200A128A15C5000A168A150A200A1292
:101BA4008A15C6004608A7004508A6004408A500F3
:101BB4004308A4000A30F7000030F8005008F90088
:101BC400FA01F91BFA030A168A151F270A128A1545
:101BD400770883120313C70001300310C70DFF3EBB
:101BE400031DEF2D0310470D593E84000A168A1574
:101BF4000A200A128A15C8000A168A150A200A122F
:101C04008A15C9000A168A150A200A128A15CA00FA
:101C14000A168A150A200A128A15CB004B08AB0053
:101C24004A08AA004908A9004808A8000A128A1507
:101C34005C210A128A15831203132708C10026089F
:101C4400C0002508BF002408BE00FF2F5008C200B2
:101C540001300310C20DFF3E031D2B2E0310420D55
:101C6400353E84000A168A150A200A128A15C30012
:101C74000A168A150A200A128A15C4000A168A1539
:101C84000A200A128A15C5000A168A150A200A12A1
:101C94008A15C6004608C1004508C0004408BF00B4
:101CA4004308BE00FF2F5008803A123E031C5B2EEF
:101CB4005C2E442F0A30F7000030F8005008F20080
:101CC400F301F21BF3036430F0000030F1000A1654
:101CD4008A1102200A128A157108FA007008F900A4
:101CE4000A168A151F270A128A1577088312031306
:101CF400C20001300310C20DFF3E031D7C2E0310F1
:101D0400420D253E84000A168A150A200A128A15F5
:101D1400C3000A168A150A200A128A15C4000A1674
:101D24008A150A200A128A15C5000A168A150A207D
:101D34000A128A15C6004608A7004508A6004408EA
:101D4400A5004308A4006430F7000030F8005008F0
:101D5400F900FA01F91BFA030A168A151F270A1259
:101D64008A15770883120313C70001300310C70DC7
:101D7400FF3E031DB82E0310470D493E84000A168A
:101D84008A150A200A128A15C8000A168A150A201A
:101D94000A128A15C9000A168A150A200A128A1517
:101DA400CA000A168A150A200A128A15CB004B08A3
:101DB400AB004A08AA004908A9004808A8000A126A
:101DC4008A155C210A128A15831203132708CF008F
:101DD4002608CE002508CD002408CC000A30F000E7
:101DE4000030F1005008F200F301F21BF3030A166D
:101DF4008A1102200A128A15700883120313C20082
:101E040001300310C20DFF3E031D032F0310420DCA
:101E1400013E84000A168A150A200A128A15C30094
:101E24000A168A150A200A128A15C4000A168A1587
:101E34000A200A128A15C5000A168A150A200A12EF
:101E44008A15C6004608A7004508A6004408A50050
:101E54004308A4004F08AB004E08AA004D08A9008F
:101E64004C08A8000A128A155C210A128A158312EA
:101E740003132708C1002608C0002508BF00240852
:101E8400BE00FF2F5008803A753E031C4A2F4B2F8B
:101E9400D32F0A30F0000030F1005008F200F301B3
:101EA400F21BF3030A168A1102200A128A1570081B
:101EB40083120313C20001300310C20DFF3E031D41
:101EC4005E2F0310420D013E84000A168A150A2073
:101ED4000A128A15C3000A168A150A200A128A15DC
:101EE400C4000A168A150A200A128A15C5000A16A1
:101EF4008A150A200A128A15C6004608A700450852
:101F0400A6004408A5004308A4000A30F7000030E6
:101F1400F8005008F900FA01F91BFA030A168A15A9
:101F24001F270A128A15770883120313C70001308A
:101F34000310C70DFF3E031D9A2F0310470D253EC6
:101F440084000A168A150A200A128A15C8000A167D
:101F54008A150A200A128A15C9000A168A150A2047
:101F64000A128A15CA000A168A150A200A128A1544
:101F7400CB004B08AB004A08AA004908A90048084E
:101F8400A8000A128A155C210A128A158312031307
:101F94002708C1002608C0002508BF002408BE0089
:101FA400FF2F5008C20001300310C20DFF3E031D75
:101FB400D62F0310420D013E84000A168A150A200A
:101FC4000A128A15C3000A168A150A200A128A15EB
:101FD400C4000A168A150A200A128A15C5000A16B0
:101FE4008A150A200A128A15C6004608C100450847
:0C1FF400C0004408BF004308BE00080005
:10200400F601F31F062807280E28F209F309F20A3D
:102014000319F30AF601F60AF11F112812281728EA
:10202400F009F109F00A0319F10A7008710403199F
:102034001C281D284C28F501F50A2B280130031013
:10204400F00DF10DFF3E031D21280130F40074084A
:10205400F507F11F2E282F28202871087302031D6D
:10206400352870087202031C382839283F28700864
:10207400F2027108031CF303F30201300310F10CA4
:10208400F00CFF3E031D40280130F502031D4B28D0
:102094004C282F2876080319502851285628F2096D
:1020A400F309F20A0319F30A7308F1007208F00045
:1020B40008007008F8007108F9007208FA000310AB
:1020C400790D7A0D83120313A5002508031D6B28CF
:1020D4006C2875280030F3000030F2000030F10065
:1020E4000030F00011297408F8007508F90076082A
:1020F400FA000310790D7A0DA4002408031D832827
:10210400842885286C28F117FF30F005FF30F1058D
:102114000030F205F517FF30F405FF30F505003007
:10212400F6050030A3000030A2000030A10000300A
:10213400A0007F30A50298302407F8007808A50293
:102144001830A4000130F8000310A00DA10DA20D59
:10215400A30DF80BA62876087202031DB72875088C
:102164007102031DB72874087002031CBA28BB2827
:10217400C6287408F0027508031C750FF10276086E
:10218400031C760AF202201401300310F00DF10D45
:10219400F20DFF3E031DC7280130A402031DD328FE
:1021A400D428A428A51FD728D828F2282508803A9F
:1021B400973E0318DE28DF28E0286C28013003103E
:1021C400A30CA20CA10CA00CFF3E031DE1280130BE
:1021D400F8007808A507031DF028F128E02809294C
:1021E40018302502031CF728F82804296C2801302C
:1021F400F8000310A00DA10DA20DA30DF80BFB28F0
:102204000130A5022508031D08290929F9282308F6
:10221400F3002208F2002108F1002008F000080071
:10222400F80078080319172918292C29F31F1B29EA
:102234001C292C297009FA007109FB007209FC00A1
:102244007309FD00FA0A0319FB0A0319FC0A0319AE
:10225400FD0A34297308FD007208FC007108FB00B4
:102264007008FA007308720471047004031D3B299A
:102274003C2945290030F3000030F2000030F10021
:102284000030F000C9299630F90055290130F400D6
:102294007408F90701300310FD0CFC0CFB0CFA0C5C
:1022A400FF3E031D4D29FE307D05031D5A295B2980
:1022B400482977290130F4007408F9070130FA0736
:1022C400003003180130FB07003003180130FC070D
:1022D400003003180130FD0701300310FD0CFC0C25
:1022E400FB0CFA0CFF3E031D6F29FF307D05031D17
:1022F4007C297D295C2989290130F9020130F40007
:102304000310FA0DFB0DFC0DFD0DF40B8229FC1BD3
:102314008C298D2993290230790203189229932953
:102324007E297918962997299F29FF30FA05FF30CD
:10233400FB057F30FC05FF30FD050310F90C79081F
:10234400F400F501F601F70118300310F40DF50D52
:10235400F60DF70DFF3E031DA7297408FA0475084E
:10236400FB047608FC047708FD0478080319BB29EC
:10237400BC29C129F31FBF29C029C129FD177D0824
:10238400F3007C08F2007B08F1007A08F0000800F2
:102394008312031345088039CF004508C600460759
:1023A400D600C41FD629D729D8295614560803198C
:1023B400DC29DD29ED29560A031DE129E229EA2950
:1023C4000030C5000030C4000030C3000030C2003B
:1023D400C417C501F5290030C5000030C400003021
:1023E400C3000030C20041088039C6004608CF0649
:1023F4004108C6004607D700C01F012A022A032A43
:10240400571457080319072A082A182A570A031DBC
:102414000C2A0D2A152A0030C1000030C0000030FB
:10242400BF000030BE00C017C101202A0030C10027
:102434000030C0000030BF000030BE00410840043E
:102444003F043E04031D272A282A412A0030C500E0
:102454000030C4000030C3000030C2008030C40427
:102464007F30C5044F08C6004608C5044508C100AE
:102474004408C0004308BF004208BE009C2B560815
:10248400031D452A462A4F2A0030C1000030C000EF
:102494000030BF000030BE009C2B5608C600C701A8
:1024A4004708C90057084602C800031CC903480866
:1024B4007F3ED00049080318013E003ED100450884
:1024C400CE004408CD004308CC004208CB000030C5
:1024D400C5000030C4000030C3000030C20000302A
:1024E400D5000030D4000030D3000030D200D70132
:1024F400C52A570803197F2A802AA02A0130C6005A
:102504000310CB0DCC0DCD0DCE0DC60B822A0130A0
:10251400C6000310C20DC30DC40DC50DC60B8B2A16
:10252400D51F952A962A972A42140130C600031013
:10253400D20DD30DD40DD50DC60B992A41084E02E8
:10254400031DAE2A40084D02031DAE2A3F084C026B
:10255400031DAE2A3E084B02031CB12AB22AC12A2B
:1025640055173E08CB023F08031C3F0FCC0240081E
:10257400031C400FCD024108031C410FCE02013061
:10258400C6004608D7071A305702031CCA2ACB2AAA
:102594007B2A4E084D044C044B040319D22AD32A37
:1025A400F22A5214F22A0130C6000310C20DC30DE0
:1025B400C40DC50DC60BD72AD51FE12AE22AE32A8A
:1025C40042140130C6000310D20DD30DD40DD50D25
:1025D400C60BE52AFF30D0070318D10AFF30D10714
:1025E400C41FF52AF62AD52AD701D51FFA2AFB2AB1
:1025F400172BFF305205C600FF305305C700FF30CC
:102604005405C8007F305505C900490848044704EB
:10261400460403190E2B0F2B122BD701D70A172BA5
:10262400421C152B162B172B0F2B570803191B2B8A
:102634001C2B4D2B0130C207003003180130C30797
:10264400003003180130C407003003180130C507F7
:10265400451C2D2B2E2B4D2B4208C6004308C700CA
:102664004408C8004508C9000130CA00490DC90C16
:10267400C80CC70CC60CCA0B382B4908C50048083F
:10268400C4004708C3004608C2000130D00703183D
:10269400D10A0030D1075108803AFF0080307F0210
:1026A400031D562BFF305002031C592B5A2B682B49
:1026B400FF3083120313D0000030D1000030C50076
:1026C4000030C4000030C3000030C2008312031382
:1026D4005108803AFF0080307F02031D732B0130C4
:1026E40050020318762B772B842B83120313D0010B
:1026F400D1010030C5000030C4000030C3000030F8
:10270400C200CF01831203135008D600561C8B2B32
:102714008C2B8E2BC417922B7F30C6004608C40521
:102724005608C6000310460CC5004F08C6004608EC
:10273400C504382A080083120313D1006E305102F5
:10274400031CA52BA62BB32C3F30A7000030A600FA
:102754000030A5000030A4006430F6000030F7001B
:102764005108C200C3014208F8004308F9000A16E0
:102774008A151F250A168A11760883120313C400CA
:1027840001300310C40DFF3E031DC32B0310440D81
:102794007D3E84000A168A150A200A168A11C5008D
:1027A4000A168A150A200A168A11C6000A168A15FC
:1027B4000A200A168A11C7000A168A150A200A1660
:1027C4008A11C8004808AB004708AA004608A900B7
:1027D4004508A8000A128A155C210A168A11831278
:1027E40003132708D0002608CF002508CE002408AC
:1027F400CD000A30F6000030F7005108C200C301D2
:102804004208F2004308F3006430F0000030F100A5
:102814000A168A15A3240A168A117108F900700889
:10282400F8000A168A151F250A168A1176088312DB
:102834000313C40001300310C40DFF3E031D1D2CFF
:102844000310440D593E84000A168A150A200A16FC
:102854008A11C5000A168A150A200A168A11C600AA
:102864000A168A150A200A168A11C7000A168A153A
:102874000A200A168A11C8004808A7004708A600BB
:102884004608A5004508A4005008AB004F08AA005C
:102894004E08A9004D08A8000A128A155C210A16E0
:1028A4008A11831203132708CC002608CB002508BD
:1028B400CA002408C9000A30F0000030F1005108B1
:1028C400C200C3014208F2004308F3000A168A1545
:1028D400A3240A168A11700883120313C40001305A
:1028E4000310C40DFF3E031D722C0310440D353E2E
:1028F40084000A168A150A200A168A11C5000A16C7
:102904008A150A200A168A11C6000A168A150A2090
:102914000A168A11C7000A168A150A200A168A118D
:10292400C8004808A7004708A6004608A5004508AF
:10293400A4004C08AB004B08AA004A08A9004908A7
:10294400A8000A128A155C210A168A11831203133D
:102954002708C1002608C0002508BF002408BE00BF
:10296400A72D0B305102031CB82CB92C642D3F3019
:10297400A7000030A6000030A5000030A4000A30F3
:10298400F6000030F7005108C200C3014208F80005
:102994004308F9000A168A151F250A168A117608B3
:1029A40083120313C40001300310C40DFF3E031D42
:1029B400D62C0310440D593E84000A168A150A20A9
:1029C4000A168A11C5000A168A150A200A168A11DF
:1029D400C6000A168A150A200A168A11C7000A16A2
:1029E4008A150A200A168A11C8004808AB0047084D
:1029F400AA004608A9004508A8000A128A155C2105
:102A04000A168A11831203132708D0002608CF0060
:102A14002508CE002408CD000A30F0000030F10073
:102A24005108C200C3014208F2004308F3000A1629
:102A34008A15A3240A168A11700883120313C4008A
:102A440001300310C40DFF3E031D232D0310440D5C
:102A5400353E84000A168A150A200A168A11C50012
:102A64000A168A150A200A168A11C6000A168A1539
:102A74000A200A168A11C7000A168A150A200A169D
:102A84008A11C8004808A7004708A6004608A50000
:102A94004508A4005008AB004F08AA004E08A9003E
:102AA4004D08A8000A128A155C210A168A1183129D
:102AB40003132708C1002608C0002508BF00240806
:102AC400BE00A72D3F30A7000030A6000030A500AF
:102AD4000030A4005108C20001300310C20DFF3EB3
:102AE400031D6F2D0310420D353E84000A168A150E
:102AF4000A200A168A11C3000A168A150A200A1621
:102B04008A11C4000A168A150A200A168A11C500F9
:102B14000A168A150A200A168A11C6004608AB004E
:102B24004508AA004408A9004308A8000A128A1507
:102B34005C210A168A11831203132708C100260890
:102B4400C0002508BF002408BE0008008312031338
:102B540055088039E2005508DA005A07E400D41F0A
:102B6400B42DB52DB62D641464080319BA2DBB2DEC
:102B7400CB2D640A031DBF2DC02DC82D0030D500F8
:102B84000030D4000030D3000030D200D417D50177
:102B9400D32D0030D5000030D4000030D3000030F5
:102BA400D20059088039E300630862060319DB2D5B
:102BB400DC2DDD2D62175908DA005A07E300D81F0F
:102BC400E42DE52DE62D631463080319EA2DEB2D9E
:102BD400FB2D630A031DEF2DF02DF82D0030D900D5
:102BE4000030D8000030D7000030D600D817D90103
:102BF400032E0030D9000030D8000030D700003058
:102C0400D600640863020318082E092E2F2E621FB3
:102C14000C2E0D2E112E8030DA005A08E2066408BC
:102C2400E5006308E4006508E3005208E50056087F
:102C3400D2006508D6005308E5005708D30065089C
:102C4400D7005408E5005808D4006508D800550892
:102C5400E5005908D5006508D900E5016308DA00E4
:102C6400DB015B08DD0064085A02DC00031CDD03A1
:102C74005D08803AFF0080307F02031D432E1A3026
:102C84005C02031C462E472E7E2E83120313550826
:102C9400540453045204031D502E522E0130532E5B
:102CA4000030E5000030D5000030D4000030D300FF
:102CB4000030D2006308E400862E651C622E632E69
:102CC4006A2E6508DA0003105A0C0138E5006C2EF0
:102CD4000310E50C521C6F2E702E712EE517013077
:102CE400DA00550DD50CD40CD30CD20CDA0B732EA0
:102CF4000130DA005A08E4078312031363086402FC
:102D0400031C852E862E5F2E621B892E8A2ED32EBF
:102D14006408031D8E2E8F2E982E0030D5000030AF
:102D2400D4000030D3000030D200FF2F5608D20761
:102D3400570803110318013E0319A12ED30758089D
:102D440003110318013E0319A82ED40759080311CF
:102D54000318013E0319AF2ED507551CB22EB32E0E
:102D6400872F651CB62EB72EBE2E6508DA00031019
:102D74005A0C0138E500C02E0310E50C521CC32E7A
:102D8400C42EC52EE5170130DA00550DD50CD40C30
:102D9400D30CD20CDA0BC72E0130DA005A08E40740
:102DA400872F5508803AFF005908803A7F02031D97
:102DB400E52E58085402031DE52E57085302031D3F
:102DC400E52E560852020318E82EE92E412FFF3053
:102DD400DA00FF30DB00FF30DC00FF30DD00560896
:102DE400DE005708DF005808E0005908E1005208E7
:102DF400DE025308031C530F002F012FDF02540877
:102E0400031C540F062F072FE0025508031C550F0F
:102E14000C2F0D2FE1025E08DA075F0803185F0F1D
:102E2400142F152FDB0760080318600F1A2F1B2FB0
:102E3400DC0761080318610ADD075D08D5005C083A
:102E4400D4005B08D3005A08D2008030DA005A0854
:102E5400E206E509E50A6508031D312F322F4F2FDD
:102E64000130D207003003180130D30700300318B3
:102E74000130D407003003180130D5074F2F56080E
:102E8400D2025708031C570FD3025808031C580FCB
:102E9400D4025908031C590FD5025508540453048D
:102EA4005204031D562F572F832F6508031D5B2FD4
:102EB4005C2F832F0030D5000030D4000030D300C5
:102EC4000030D200FF2F0130DA000310D20DD30DF1
:102ED400D40DD50DDA0B672FE51F712F722F732FC9
:102EE4005214651C762F772F7A2F0314E50D7C2F4F
:102EF4000310E50D64080319802F812F832F0130FF
:102F0400E402D41F862F872F652FE301E51F8B2F43
:102F14008C2F9A2F65087F390319912F922F952FA3
:102F2400E301E30A9A2F521C982F992F9A2F922F7C
:102F3400630803199E2F9F2FD32F0130D20700302F
:102F440003180130D307003003180130D4070030D0
:102F540003180130D507551CB02FB12FD32F5208B9
:102F6400DA005308DB005408DC005508DD000130AA
:102F7400DE005D0DDD0CDC0CDB0CDA0CDE0BBB2F94
:102F84005D08D5005C08D4005B08D3005A08D20061
:102F9400640A0319CE2FCF2FD32F0130DA005A0839
:102FA400E407640A0319D72FD82FDD2F6408031D03
:102FB400DC2FDD2FEB2F0030D5000030D4000030A3
:102FC400D3000030D2006408031DE92FEA2FEB2F51
:102FD400E201641CEE2FEF2FF12FD417F52F7F3071
:102FE400DA005A08D4056408DA0003105A0CD50034
:102FF400E21FFD2FFE2FFF2FD5170800FF1B0A2805
:1030040083137F1883170008840A0319FF0A080032
:1030140018308A000408840A82070034003400341B
:1030240080343F34003400342034413400340034DC
:10303400C8344234003400347A34443400344034E4
:103044001C34463400345034C334473400342434FC
:10305400743449348034963418344B342034BC34BA
:10306400BE344C3428346B346E344E34F934023468
:1030740015345034EC347834AD346034CA34F2341A
:10308400493471340034003480343F34CD34CC348A
:10309400CC343D340A34D73423343C346F341234C2
:1030A40083343A341734B734D1343834AC34C53477
:1030B40027343734BD343734863435349534BF340B
:1030C400D63433347734CC342B3432345F347034E4
:1030D40089343034FF34E634DB342E340834E534B8
:1030E4003C341E3460344234A2340D340134003490
:1030F400003400340A3400340034003464340034BE
:1031040000340034E83403340034003410342734F9
:1031140000340034A0348634013400344034423462
:103124000F34003480349634983400340034E1345D
:10313400F53405340034CA349A343B3453343134CE
:103144003A34203420342034533432343A34203462
:1031540020342034533433343A34003425342E3478
:0631640032346634003431
:10369800F0007008831203139300080083160313C5
:1036A800141C572B582B522B08000A168A15522324
:1036B8000A168A1583120313130808007308720484
:1036C800710470040319692B6A2B6C2B8030F30684
:1036D800080000300A168A15A2230A168A15013036
:1036E8000A168A15A2230A168A150800F100F001A5
:1036F8003A3071020318812B822B8A2B30307102E9
:10370800031C872B882B8A2BF001F00A700C080009
:10371800F300831603138712731D932B942B982B96
:103728007208940087159C2B700872049400871106
:10373800730871048312031394000800F3008312C2
:103748000313081173080A168A15BC230A168A156A
:103758008312031388150630F2003030F100F10BA4
:10376800B32BF20BB32B000083120313881108004C
:10377800F000701CC02BC12BC52B83120313081635
:10378800C82B831203130812F01CCB2BCC2BCE2B87
:103798008816CF2B8812701DD22BD32BD52B081748
:1037A800D62B0813F01DD92BDA2BDC2B8817DD2B31
:1037B80088130800831603178801890183160313E9
:1037C8008801831203138801831603138601831269
:1037D8000313860183160313870107168312031345
:1037E80007158714F001F101F20120300A168A1535
:1037F8008C230A168A150800803083120313E90601
:103808006D08D5006C08D4006B08D3006A08D20094
:103818006908D9006808D8006708D7006608D60084
:103828000A168A11A8250A168A1583120313550841
:10383800E9005408E8005308E7005208E6000800C9
:10384800F401F501701C292C2A2C302C7208F4077D
:103858000318F50A7308F50701300310F20DF30D8C
:10386800FF3E031D312C01300310F10CF00CFF3E1C
:10387800031D382C70087104031D432C442C262C7E
:103888007508F1007408F0000800F800F401F5016B
:103898007008F200F3017208F6007308F700781C4C
:1038A800562C572C5D2C7608F4070318F50A770870
:1038B800F50701300310F60DF70DFF3E031D5E2CD2
:1038C8000310F80C7808031D6A2C6B2C532C750810
:1038D800F1007408F0000800F40074080F39F200D1
:1038E8007408F039F3008312031308157308F10004
:1038F80004300310F10CFF3E031D7D2C71080A16DD
:103908008A15BC230A168A158312031388150D30ED
:10391800F100F10B8D2C83120313881172080A161B
:103928008A15BC230A168A158312031388150D30CD
:10393800F100F10B9D2C8312031388110800700805
:1039480071040319A82CA92CD82CF501F50AB72C59
:1039580001300310F00DF10DFF3E031DAD2C0130B9
:10396800F4007408F507F11FBA2CBB2CAC2C7108B5
:103978007302031DC12C70087202031CC42CC52CD1
:10398800CB2C7008F2027108031CF303F302013018
:103998000310F10CF00CFF3E031DCC2C0130F50296
:1039A800031DD72CD82CBB2C7308F1007208F0002B
:1039B8000800FA01FB01022D7A087507F80076085D
:1039C800F7000318F70AFA1FEA2CF7037708F9003B
:1039D800790883120313FF00780884000A168A15F1
:1039E80000200A168A150A168A1570240A168A15DE
:1039F8000130FA070318FB0A0030FB077A0875073D
:103A0800F8007608F7000318F70AFA1F0C2DF703D9
:103A18007708F900790883120313FF0078088400F7
:103A28000A168A1500200A168A15003A031D1D2D4C
:103A38001E2DE02C0800FB01FC0176087704031911
:103A4800262D272D5E2DFD01FD0A352D0130031091
:103A5800F60DF70DFF3E031D2B2D0130FA007A08F5
:103A6800FD07F71F382D392D2A2D01300310FB0DC6
:103A7800FC0DFF3E031D3A2D77087902031D462DE4
:103A880076087802031C492D4A2D512D7608F80234
:103A98007708031CF903F9027B1401300310F70CB3
:103AA800F60CFF3E031D522D0130FD02031D5D2D56
:103AB8005E2D392D7C08F7007B08F6000800F6001B
:103AC8007603031D682D692D862D74087F3EF90045
:103AD8007908F50004300310F50CFF3E031D6F2D27
:103AE8007508F70079080F39F80077080A168A155B
:103AF800A2230A168A1578080A168A15A2230A1616
:103B08008A15A82D02307606031D8B2D8C2DA82D25
:103B18007408BF3EF9007908F50004300310F50C6D
:103B2800FF3E031D922D7508F70079080F39F8003C
:103B380077080A168A15A2230A168A1578080A161B
:103B48008A15A2230A168A150800730872047104DC
:103B580070040319B02DB12DF42DF901F90AC12D06
:103B68000130F8000310F00DF10DF20DF30DF80B14
:103B7800B62D0130F8007808F907F31FC42DC52DBC
:103B8800B42D73087702031DD32D72087602031D26
:103B9800D32D71087502031DD32D70087402031C00
:103BA800D62DD72DE52D7008F4027108031C710F6E
:103BB800F5027208031C720FF6027308031C730FD8
:103BC800F70201300310F30CF20CF10CF00CFF3E7D
:103BD800031DE62D0130F902031DF32DF42DC52D2B
:103BE8007708F3007608F2007508F1007408F00011
:103BF800080000300A168A15BC230A168A151A30DE
:103C0800F500F830F400F40B072EF50B072E000032
:103C180003300A168A15A2230A168A150730F500FA
:103C28007D30F400F40B162EF50B162E03300A1611
:103C38008A15A2230A168A150F30F5004730F400BA
:103C4800F40B242EF50B242E292E03300A168A1580
:103C5800A2230A168A1502300A168A15A2230A1602
:103C68008A1502300A168A15A2230A168A15083000
:103C78000A168A15A2230A168A1500300A168A150A
:103C8800A2230A168A150C300A168A15A2230A16C8
:103C98008A1500300A168A15A2230A168A150630D4
:103CA8000A168A15A2230A168A150800F00007309A
:103CB8007006031D602E612E652E70308316031367
:103CC8008F0406307006031D6A2E6B2E712E831624
:103CD80003130F088F3960388F0005307006031DF5
:103CE800762E772E7D2E831603130F088F395038C2
:103CF8008F0004307006031D822E832E892E8316B2
:103D080003130F088F3940388F0003307006031DE6
:103D18008E2E8F2E952E831603130F088F39303869
:103D28008F0002307006031D9A2E9B2EA12E83163B
:103D380003130F088F3920388F007003031DA52E39
:103D4800A62EAC2E831603130F088F3910388F0058
:103D58007008031DB02EB12EB52E8F3083160313B5
:103D68008F05831603130F1408000030FC00003081
:103D7800FB000030FA000030F90073087204710487
:103D880070040319C82EC92E162FFD01FD0AD92E5D
:103D98000130F8000310F00DF10DF20DF30DF80BE2
:103DA800CE2E0130F8007808FD07F31FDC2EDD2E3B
:103DB800CC2E0130F8000310F90DFA0DFB0DFC0DA7
:103DC800F80BDF2E73087702031DF42E72087602B3
:103DD800031DF42E71087502031DF42E7008740279
:103DE800031CF72EF82E072F7008F4027108031C25
:103DF800710FF5027208031C720FF6027308031C98
:103E0800730FF702791401300310F30CF20CF10C64
:103E1800F00CFF3E031D082F0130FD02031D152F76
:103E2800162FDD2E7C08F3007B08F2007A08F100DB
:103E38007908F000080083120313A101F81F252F49
:103E4800262F2D2FF709F809F70A0319F80AA101F7
:103E5800A10AFA1F302F312F3A2FF909FA09F90A66
:103E68000319FA0A0130FB007B08A106A201A3018D
:103E7800770878040319412F422F792FA001A00A4F
:103E8800502F01300310F70DF80DFF3E031D462F8C
:103E98000130FB007B08A007F81F532F542F452F34
:103EA80001300310A20DA30DFF3E031D552F780806
:103EB8007A02031D612F77087902031C642F652F8E
:103EC8006C2F7708F9027808031CFA03FA02221407
:103ED80001300310F80CF70CFF3E031D6D2F013065
:103EE800A002031D782F792F542F210803197D2F45
:103EF8007E2F832FA209A309A20A0319A30A230864
:103F0800F8002208F7000800031083120313530D6A
:103F1800540DDA005A08031D922F932F9C2F00305E
:103F2800D4000030D3000030D2000030D100FF2F81
:103F38005108D5005208D6005308D7005408D800B5
:103F48001F300310D80CD70CD60CD50CFF3E031D20
:103F5800A52F5508D900D317FF30D105FF30D2055A
:103F6800FF30D3050030D4059630DA02DA1FBD2FB2
:103F7800BE2FD82F5A08803A973E0318C42FC52F52
:103F8800C62F932F01300310D40CD30CD20CD10CB4
:103F9800FF3E031DC72F0130D5005508DA07031D62
:103FA800D62FD72FC62FEF2F20305A02031CDD2F14
:103FB800DE2FEA2F932F0130D5000310D10DD20D3B
:103FC800D30DD40DD50BE12F0130DA025A08031DA9
:103FD800EE2FEF2FDF2F59080319F32FF42FFF2FA0
:103FE800D109D209D309D409D10A0319D20A03196C
:103FF800D30A0319D40A0800FF3FFF3FFF3FFF3FE2
:04400E00D420FF3F7C
:00000001FF
