:100000000A128A11F32FFF1B0D2883137F18831701
:100010000008840A0319FF0A080000308A00040857
:10002000840A820700340034003480343F340034C2
:1000300000342034413400340034C83442340034B5
:1000400000347A344434003440341C3446340034B0
:100050005034C33447340034243474344934803445
:10006000963418344B342034BC34BE344C342834E9
:100070006B346E344E34F934023415345034EC346D
:100080007834AD346034CA34F234493471340034D5
:10009000003480343F34CD34CC34CC343D340A3455
:1000A000D73423343C346F34123483343A34173425
:1000B000B734D1343834AC34C53427343734BD3454
:1000C0003734863435349534BF34D63433347734CA
:1000D000CC342B3432345F34703489343034FF34D0
:1000E000E634DB342E340834E5343C341E346034DA
:1000F0004234A2340D3401340034003400340A3464
:100100000034003400346434003400340034E83403
:100110000334003400341034273400340034A03465
:10012000863401340034403442340F340034803497
:100130009634983400340034E134F5340534003416
:10014000CA349A343B34533431343A342034203472
:100150002034533432343A342034203443344F344E
:100160004E340034203420342034203456342034AB
:1001700020342034203420345634203420340034C9
:0A01800025342E3432346634003486
:10019000F40074080F39F2007408F039F300831288
:1001A000031308157308F10004300310F10CFF3E2F
:1001B000031DD52871080A168A153C210A128A11D6
:1001C0008312031388150D30F100F10BE52883121B
:1001D0000313881172080A168A153C210A128A1123
:1001E0008312031388150D30F100F10BF5288312EB
:1001F0000313881108000310720D730D831203138B
:10020000A5002508031D052906290F290030F30044
:100210000030F2000030F1000030F000B22903108D
:10022000760D770DA4002408031D17291829192914
:100230000629F217FF30F005FF30F105FF30F20517
:100240000030F305F617FF30F405FF30F505FF30F9
:10025000F6050030F7050030A3000030A2000030A2
:10026000A1000030A0007F30A502A0302407F800D4
:100270007808A5022030A4000130F8000310A00D7A
:10028000A10DA20DA30DF80B3E2977087302031DE3
:10029000532976087202031D532975087102031D44
:1002A000532974087002031C5629572966297408BB
:1002B000F0027508031C750FF1027608031C760F17
:1002C000F2027708031C770FF30220140130F800C4
:1002D0000310F00DF10DF20DF30DF80B682901304C
:1002E000A402031D742975293C29A51F78297929A1
:1002F00093292508803A9F3E03187F298029812968
:10030000062901300310A30CA20CA10CA00CFF3E87
:10031000031D82290130F8007808A507031D9129E3
:1003200092298129AA2920302502031C982999297C
:10033000A52906290130F8000310A00DA10DA20D7A
:10034000A30DF80B9C290130A5022508031DA9293E
:10035000AA299A292308F3002208F2002108F100B3
:100360002008F000080083160313BB00A130AE0084
:10037000DE2F253042060319BE29BF29C9293B08B3
:1003800084004208831380000130A5002508BB07C4
:10039000DE2FAF01B001200884000A128A110D205F
:1003A0000A128A112E3A031DD629D7291C2A301782
:1003B0000130A5002508A007BC01BD010B2A0A30A9
:1003C000F0000030F100831603133D08F3003C08F1
:1003D000F2000A168A15A4210A128A1171088316DE
:1003E0000313BD007008BC00200884000A128A11A3
:1003F0000D200A128A11D03EA500FF3003180030EC
:10040000A6002508BC070318BD0A2608BD07013051
:10041000A5002508A007200884000A128A110D20D3
:100420000A128A110A168A15FA200A128A1103186A
:100430001A2A1B2ADF29222ABC01BD013016222AD2
:1004400030153E2A013083160313A007FF30200722
:1004500084000A128A110D200A128A11C200A50016
:10046000A6012608003A0319362ADE2F2508003A8D
:100470000319EE2F663A0319202ADE2F00302F05CC
:10048000A50007303005A600250826040319492ACF
:100490004A2A9B2F301E4D2A4E2A522A0630BC0073
:1004A0000030BD002E08840083130008BE00840ABB
:1004B0000008BF00840A0008C000840A0008C100C8
:1004C0000430A5002508AE074108F3004008F200FB
:1004D0003F08F1003E08F0000030F7000030F60061
:1004E0000030F5000030F4000A128A1502200A12CA
:1004F0008A1103187C2A7D2A9A2A8316031341083D
:10050000F3004008F2003F08F1003E08F0000A1630
:100510008A15EF200A128A11730883160313C1008B
:100520007208C0007108BF007008BE000330AF043D
:100530000030B00483160313B501B6014108F3007F
:100540004008F2003F08F1003E08F0000030F700DC
:100550000030F6000030F5000030F4000A168A156D
:10056000F6220A128A110318B62AB72AA72B0310FB
:1005700083160313400D410D823EB500FF30031872
:100580000030B600FF30B5070318B60AFF30B607D3
:100590000330F0000030F1003608F3003508F200B7
:1005A0000A168A15A4210A128A11710883160313E8
:1005B000B6007008B5000A30F7000030F8003608C1
:1005C000FA003508F9000A168A15C4250A128A119C
:1005D000780883160313B6007708B500B61FF12A12
:1005E000F22AF82AFF30B5070318B60AFF30B6071B
:1005F0003503FF3A0A128A15A1240A128A118312BE
:100600000313410883160313BA008312031340082F
:1006100083160313B900831203133F0883160313D1
:10062000B800831203133E0883160313B700410872
:1006300083120313A70083160313400883120313C6
:10064000A600831603133F0883120313A500831625
:1006500003133E0883120313A400831603133A08FE
:1006600083120313AB008316031339088312031399
:10067000AA0083160313380883120313A9008316F4
:100680000313370883120313A8000A128A155C218A
:100690000A128A1183120313270883160313BA0060
:1006A00083120313260883160313B900831203135E
:1006B000250883160313B800831203132408831636
:1006C0000313B7003A08F3003908F2003808F100C4
:1006D0003708F0003F30F7008030F6000030F500BA
:1006E0000030F4000A128A1502200A128A11031837
:1006F0007A2B7B2B842BFF3083160313B50703184B
:10070000B60AFF30B607A72B831603133A08F30087
:100710003908F2003808F1003708F0004130F700DE
:100720002030F6000030F5000030F4000A128A157F
:1007300002200A128A11031C9E2B9F2BA72B01302B
:1007400083160313B5070318B60A0030B6078316DD
:1007500003133D08803AFF0080307F02031DB22B57
:100760000D303C020318B52BB62BFD2B831603135B
:100770003C080A168A1140210A128A1183120313B7
:100780004108D5004008D4003F08D3003E08D200FD
:1007900083160313410883120313D900831603132E
:1007A000400883120313D800831603133F088312F3
:1007B0000313D700831603133E0883120313D600D6
:1007C0000A168A114B230A128A1183120313550841
:1007D00083160313C10083120313540883160313F3
:1007E000C00083120313530883160313BF00831240
:1007F0000313520883160313BE008316031336082F
:10080000803AFF0080307F02031D082C0A30350239
:1008100003180B2C0C2C5D2C831603134108F300DA
:100820004008F2003F08F1003E08F0000030F700F9
:100830000030F6000030F5000030F4000A168A158A
:10084000F6220A128A110318262C272CCF2C831685
:100850000313410883120313D400831603134008C3
:1008600083120313D300831603133F088312031369
:10087000D200831603133E0883120313D1000A1615
:100880008A1111200A128A11831203135408530487
:1008900052045104031D4D2C4E2CCF2C83160313F0
:1008A0003608803AFF0080307F02031D592C023049
:1008B0003502031C5C2C5D2CCF2C831603133A08E5
:1008C000F3003908F2003808F1003708F000403032
:1008D000F7008930F6007030F5005F30F4000A123E
:1008E0008A1502200A128A110318772C782C812C81
:1008F000F73083160313B5070318B60AFF30B6079F
:10090000892CF83083160313B5070318B60AFF3095
:10091000B60735080A128A15A1240A128A11831211
:100920000313410883160313BA008312031340080C
:1009300083160313B900831203133F0883160313AE
:10094000B800831203133E0883160313B70041084F
:10095000F3004008F2003F08F1003E08F0003A08BA
:10096000F7003908F6003808F5003708F4000A12D5
:100970008A11FB200A128A11730883160313B4002C
:100980007208B3007108B2007008B1000030C100F5
:100990000030C0000030BF000030BE00532D831671
:1009A0000313410883120313D40083160313400872
:1009B00083120313D300831603133F088312031318
:1009C000D200831603133E0883120313D1000A16C4
:1009D0008A1111200A128A118312031354088316F4
:1009E0000313B40083120313530883160313B300D5
:1009F00083120313520883160313B20083120313E6
:100A0000510883160313B1003408F3003308F200D1
:100A10003208F1003108F00000300A128A15A420D3
:100A20000A128A11730883120313E9007208E8009E
:100A30007108E7007008E60083160313410883126B
:100A40000313ED0083160313400883120313EC0015
:100A5000831603133F0883120313EB00831603135B
:100A60003E0883120313EA000A168A1580210A122F
:100A70008A1183120313690883160313C1008312BA
:100A80000313680883160313C00083120313670857
:100A900083160313BF008312031366088316031320
:100AA000BE00B501B601C201C20A4208A50001306C
:100AB0000310A50DFF3E031D582D0310250D693EA3
:100AC00084000A128A110D200A128A11A6000A1245
:100AD0008A110D200A128A11A7000A128A110D200C
:100AE0000A128A11A8000A128A110D200A128A110C
:100AF000A90029083402031D872D28083302031D8D
:100B0000872D27083202031D872D2608310203187E
:100B10008A2D8B2D8C2D962D0130A5002508C2071E
:100B20000A304206031D952D962D552D03302F05B5
:100B3000A50000303005A600250826040319A12DC4
:100B4000A22D102E3B0884002D308313800001302D
:100B5000A5002508BB07102E4208A5000130031090
:100B6000A50DFF3E031DAF2D0310250D693E84002A
:100B70000A128A110D200A128A11F0000A128A1133
:100B80000D200A128A11F1000A128A110D200A1290
:100B90008A11F2000A128A110D200A128A11F3003A
:100BA0003408F7003308F6003208F5003108F40085
:100BB0000A168A155E250A128A1173088316031312
:100BC000BA007208B9007108B8007008B7000030A8
:100BD000F3000030F2000030F1000A30F0003A0873
:100BE000F7003908F6003808F5003708F4000A164F
:100BF0008A1594230A128A11730883160313BA0004
:100C00007208B9007108B8007008B7003B0884008A
:100C10003708303E831380000130A5002508BB074C
:100C20000130C202420A031D162E172EAC2D292EAA
:100C3000831603133B088400303083138000013097
:100C4000A5002508BB07FF30B5070318B60AFF301B
:100C5000B6073608803AFF0080307F02031D322E2F
:100C6000013035020318352E362E182E8316031345
:100C70003D08803AFF0080307F02031D412E09307D
:100C80003C02031C442E452E4A2E083083160313C3
:100C9000C2004E2E831603133C08C2004208A50072
:100CA000A6012508BC022608031CBD03BD0242089C
:100CB00003195B2E5C2E652E3B0884002E308313B7
:100CC00080000130A5002508BB0742080A128A15DA
:100CD000A1240A128A1183120313410883160313F5
:100CE000AD0083120313400883160313AC00831274
:100CF00003133F0883160313AB00831203133E084C
:100D000083160313AA002D0883120313AB00831666
:100D100003132C0883120313AA00831603132B0852
:100D200083120313A900831603132A0883120313E3
:100D3000A80083160313410883120313A700831628
:100D40000313400883120313A600831603133F08FE
:100D500083120313A500831603133E0883120313A3
:100D6000A4000A128A155C210A128A118312031345
:100D70002708D4002608D3002508D2002408D10073
:100D80000A168A1111200A128A11831203135408B9
:100D900083160313B400831203135308831603133B
:100DA000B30083120313520883160313B200831295
:100DB0000313510883160313B1007D2F4208A500C9
:100DC00001300310A50DFF3E031DE12E0310250D7C
:100DD000693E84000A128A110D200A128A11F0005D
:100DE0000A128A110D200A128A11F1000A128A11C0
:100DF0000D200A128A11F2000A128A110D200A121D
:100E00008A11F3003408F7003308F6003208F500C1
:100E10003108F4000A168A155E250A128A11730831
:100E200083160313BA007208B9007108B80070087D
:100E3000B7000030F3000030F2000030F1000A305B
:100E4000F0003A08F7003908F6003808F5003708CE
:100E5000F4000A168A1594230A128A11730883165D
:100E60000313BA007208B9007108B8007008B7001F
:100E70003B0884003708303E831380000130A50012
:100E80002508BB074208A50001300310A50DFF3E51
:100E9000031D452F0310250D693E84000A128A1197
:100EA0000D200A128A11F0000A128A110D200A126E
:100EB0008A11F1000A128A110D200A128A11F20019
:100EC0000A128A110D200A128A11F3003408F70061
:100ED0003308F6003208F5003108F4000A168A15C6
:100EE00094230A128A11730883160313B40072083C
:100EF000B3007108B2007008B1000130C202420AAA
:100F0000031D832F842FDE2E942F3B088400303066
:100F1000831380000130A5002508BB07FF30BC0704
:100F20000318BD0AFF30BD073C083D04031D992F7F
:100F30009A2F852FDE2F3C083D04031DA02FA12FE3
:100F4000AF2F3408330432043104031DA82FA92F16
:100F5000AF2F0130BC070318BD0A0030BD073D08A4
:100F6000803A803C031DB62F3C0842020318B92F7B
:100F7000BA2FBB2FCA2F831603133D08803AA50052
:100F800080302502031DC62F42083C020318C92FDA
:100F9000CA2FCA2F0330831603132F05A500003074
:100FA0003005A600250826040319D72FD82FDE2FD9
:100FB0003B0884002D3083138000C4290130A00732
:100FC000FF30200784000A128A110D200A128A11AC
:100FD000C2004208031DED2FEE2FB9293B08840003
:100FE0008313800108008313C7308400DC300A16A5
:100FF0008A15DE200A128A1183010A168A11A32D8E
:1010040000307005F80000307105F9008030720579
:10101400FA007F307305FB007B087A0479047804B6
:10102400031D152816281E280030F3000030F20096
:101034000030F1000030F00000307405F80000309A
:101044007505F90080307605FA007F307705FB00DE
:101054007B087A0479047804031D312832283A285D
:101064000030F7000030F6000030F5000030F400E6
:10107400F31F3D283E2862280030F8000030F900B4
:101084000030FA008030FB007008F8027108031C7D
:10109400710F4D284E28F9027208031C720F532851
:1010A4005428FA027308031C730F59285A28FB02A8
:1010B4007B08F3007A08F2007908F1007808F00060
:1010C400F71F652866288A280030F8000030F900E8
:1010D4000030FA008030FB007408F8027508031C25
:1010E400750F75287628F9027608031C760F7B287D
:1010F4007C28FA027708031C770F81288228FB02D8
:101104007B08F7007A08F6007908F5007808F400FF
:101114008030F3068030F70677087302031D9C289D
:1011240076087202031D9C2875087102031D9C2811
:101134007408700203189F28A028A2280310A3286B
:1011440003140800F80078080319A928AA28BE285F
:10115400F31FAD28AE28BE287009FA007109FB0000
:101164007209FC007309FD00FA0A0319FB0A03194A
:10117400FC0A0319FD0AC6287308FD007208FC0066
:101184007108FB007008FA0073087204710470049B
:10119400031DCD28CE28D7280030F3000030F200FC
:1011A4000030F1000030F0005B299630F900E728A8
:1011B4000130F4007408F90701300310FD0CFC0C35
:1011C400FB0CFA0CFF3E031DDF28FE307D05031DDA
:1011D400EC28ED28DA2809290130F4007408F9070D
:1011E4000130FA07003003180130FB070030031800
:1011F4000130FC07003003180130FD0701300310F3
:10120400FD0CFC0CFB0CFA0CFF3E031D0129FF3006
:101214007D05031D0E290F29EE281B290130F90233
:101224000130F4000310FA0DFB0DFC0DFD0DF40B61
:101234001429FC1B1E291F292529023079020318B1
:101244002429252910297918282929293129FF3009
:10125400FA05FF30FB057F30FC05FF30FD05031068
:10126400F90C7908F400F501F601F70118300310C0
:10127400F40DF50DF60DF70DFF3E031D3929740825
:10128400FA047508FB047608FC047708FD04780862
:1012940003194D294E295329F31F51295229532942
:1012A400FD177D08F3007C08F2007B08F1007A0842
:1012B400F00008008312031327088039B1002708BF
:1012C400AC002C07B700A61F682969296A293714BE
:1012D400370803196E296F297E29370A031D7329DC
:1012E40074297C290030A7000030A6000030A50036
:1012F4000030A400A61786290030A7000030A600FD
:101304000030A5000030A4002B088039AC002C0864
:10131400B1062B08AC002C07B600AA1F922993290A
:10132400942936143608031998299929A829360AC4
:10133400031D9D299E29A6290030AB000030AA0078
:101344000030A9000030A800AA17B0290030AB0073
:101354000030AA000030A9000030A80036080319A4
:10136400B429B529BA293708031DB929BA29C329CB
:101374000030A7000030A6000030A5000030A40013
:10138400A02C2408F0002A080A168A15C9210A127A
:101394008A15710883120313BD007008BC003C0851
:1013A400AC00AD01AE01AF012F08B5002E08B400AA
:1013B4002D08B3002C08B2003D08AC00AD01AE010D
:1013C400AF012F08BB002E08BA002D08B9002C0865
:1013D400B8002508F00029080A168A15C9210A123E
:1013E4008A15710883120313BD007008BC003C0801
:1013F400AC00AD01AE01AF012C08B2072D080311FA
:101404000318013E0319072AB3072E080311031812
:10141400013E03190E2AB4072F0803110318013ED5
:101424000319152AB5073D08AC00AD01AE01AF01A3
:101434002C08B8072D0803110318013E0319232AA9
:10144400B9072E0803110318013E03192A2ABA0703
:101454002F0803110318013E0319312ABB0726087C
:10146400F00028080A168A15C9210A128A1571087B
:1014740083120313BD007008BC003C08AC00AD012E
:10148400AE01AF012C08B2072D0803110318013E69
:1014940003194D2AB3072E0803110318013E03193B
:1014A400542AB4072F0803110318013E03195B2AB9
:1014B400B5073D08AC00AD01AE01AF012C08B8077B
:1014C4002D0803110318013E0319692AB9072E08D0
:1014D40003110318013E0319702ABA072F080311D8
:1014E4000318013E0319772ABB070830AC00031028
:1014F400B20DB30DB40DB50DAC0B792A2508F0006F
:1015040028080A168A15C9210A128A157108831235
:101514000313BD007008BC003C08AC003D08AD00DE
:10152400AE01AF012C08B2072D0803110318013EC8
:1015340003199D2AB3072E0803110318013E03194A
:10154400A42AB4072F0803110318013E0319AB2A78
:10155400B5072408F00029080A168A15C9210A12B9
:101564008A15710883120313BD007008BC003C087F
:10157400AC003D08AD00AE01AF012C08B2072D0848
:1015840003110318013E0319C82AB3072E080311D7
:101594000318013E0319CF2AB4072F0803110318B7
:1015A400013E0319D62AB5070830AC000310B20D6A
:1015B400B30DB40DB50DAC0BD82A2408F0002808DF
:1015C4000A168A15C9210A128A157108831203138F
:1015D400BD007008BC003C08AC003D08AD00AE0185
:1015E400AF012C08B2072D0803110318013E03199B
:1015F400FC2AB3072E0803110318013E0319032B19
:10160400B4072F0803110318013E03190A2BB50769
:101614002508F0002A080A168A15C9210A128A1513
:10162400710883120313BD007008BC003C08AC00B1
:101634003D08AD00AE01AF012C08B8072D08031119
:101644000318013E0319272BB9072E0803110318A9
:10165400013E03192E2BBA072F0803110318013E6C
:101664000319352BBB072608F00029080A168A152A
:10167400C9210A128A15710883120313BD00700868
:10168400BC003C08AC003D08AD00AE01AF012C0825
:10169400B8072D0803110318013E0319522BB9078B
:1016A4002E0803110318013E0319592BBA072F08FA
:1016B40003110318013E0319602BBB072608F00031
:1016C4002A080A168A15C9210A128A157108831272
:1016D4000313BD007008BC003C08AC003D08AD001D
:1016E400AE01AF0108300310AC0DAD0DAE0DAF0D62
:1016F400FF3E031D752B2C08B8072D080311031892
:10170400013E0319862BB9072E0803110318013E65
:1017140003198D2BBA072F0803110318013E03196F
:10172400942BBB073208AC003308AD003408AE007C
:101734003508AF0018300310AF0CAE0CAD0CAC0C78
:10174400FF3E031D9D2B2C08B8072D080311031819
:10175400013E0319AE2BB9072E0803110318013EED
:101764000319B52BBA072F0803110318013E0319F7
:10177400BC2BBB070830AC000310B20DB30DB40D85
:10178400B50DAC0BBE2B37083607AC00AD01AD0D63
:101794002C08823EBC002D080318013EFF3EBD000C
:1017A400F02B0130AC000310B80DB90DBA0DBB0D10
:1017B400AC0BD52BB51FDF2BE02BE12B38140130FC
:1017C400AC000310B20DB30DB40DB50DAC0BE32B8F
:1017D400FF30BC070318BD0AFF30BD07BA1FF32B47
:1017E400F42BD32BB601B51FF82BF92B152CFF3096
:1017F4003205AC00FF303305AD00FF303405AE00D8
:101804007F303505AF002F082E042D042C04031956
:101814000C2C0D2C102CB601B60A152C381C132CCC
:10182400142C152C0D2C36080319192C1A2C4B2C9E
:101834000130B807003003180130B907003003182D
:101844000130BA07003003180130BB073B1C2B2CB6
:101854002C2C4B2C3808AC003908AD003A08AE00EB
:101864003B08AF000130B0002F0DAF0CAE0CAD0C37
:10187400AC0CB00B362C2F08BB002E08BA002D0878
:10188400B9002C08B8000130BC070318BD0A0030A9
:10189400BD073D08803AFF0080307F02031D542CB1
:1018A400FF303C02031C572C582C632C7F308312CE
:1018B4000313BB008030BA000030B9000030B80018
:1018C400942C831203133D08803AFF0080307F027A
:1018D400031D6E2C01303C020318712C722C7E2CDB
:1018E400003083120313BB000030BA000030B9008B
:1018F4000030B800B101942C831203133C08B700E4
:10190400FF30B805FF30B9057F30BA050030BB059C
:10191400371C8D2C8E2C8F2CBA173708AC00031073
:101924002C0CBB003108AC002C08BB043B08A700FE
:101934003A08A6003908A5003808A4000800831254
:101944000313D000D01FA72CA82C552ED009D00AE1
:101954005008803A123E031CB02CB12C992D0A3049
:10196400F7000030F8005008F200F301F21BF30313
:101974006430F0000030F1000A168A15E8230A12D8
:101984008A157108FA007008F9000A168A15C42528
:101994000A128A15770883120313C2000130031058
:1019A400C20DFF3E031DD12C0310420D593E84008D
:1019B4000A128A110D200A128A15C3000A128A110A
:1019C4000D200A128A15C4000A128A110D200A1267
:1019D4008A15C5000A128A110D200A128A15C6003A
:1019E4004608A7004508A6004408A5004308A4002B
:1019F4006430F7000030F8005008F900FA01F91BD0
:101A0400FA030A168A15C4250A128A15770883125E
:101A14000313C70001300310C70DFF3E031D0D2D36
:101A24000310470D7D3E84000A128A110D200A120C
:101A34008A15C8000A128A110D200A128A15C900D3
:101A44000A128A110D200A128A15CA000A128A1172
:101A54000D200A128A15CB004B08AB004A08AA00D5
:101A64004908A9004808A8000A128A155C210A122C
:101A74008A15831203132708CF002608CE002508F1
:101A8400CD002408CC000A30F0000030F1005008EA
:101A9400F200F301F21BF3030A168A15E8230A1273
:101AA4008A15700883120313C20001300310C20D9B
:101AB400FF3E031D582D0310420D353E84000A12CB
:101AC4008A110D200A128A15C3000A128A110D20E8
:101AD4000A128A15C4000A128A110D200A128A15E4
:101AE400C5000A128A110D200A128A15C60046087A
:101AF400A7004508A6004408A5004308A4004F0811
:101B0400AB004E08AA004D08A9004C08A8000A1210
:101B14008A155C210A128A15831203132708C1004F
:101B24002608C0002508BF002408BE00FF2F500867
:101B3400803A753E031C9F2DA02D282E0A30F000FC
:101B44000030F1005008F200F301F21BF3030A160F
:101B54008A15E8230A128A15700883120313C20037
:101B640001300310C20DFF3E031DB32D0310420DBF
:101B7400353E84000A128A110D200A128A15C30008
:101B84000A128A110D200A128A15C4000A128A1137
:101B94000D200A128A15C5000A128A110D200A1294
:101BA4008A15C6004608A7004508A6004408A500F3
:101BB4004308A4000A30F7000030F8005008F90088
:101BC400FA01F91BFA030A168A15C4250A128A15A2
:101BD400770883120313C70001300310C70DFF3EBB
:101BE400031DEF2D0310470D593E84000A128A117C
:101BF4000D200A128A15C8000A128A110D200A1231
:101C04008A15C9000A128A110D200A128A15CA00FF
:101C14000A128A110D200A128A15CB004B08AB0058
:101C24004A08AA004908A9004808A8000A128A1507
:101C34005C210A128A15831203132708C10026089F
:101C4400C0002508BF002408BE00FF2F5008C200B2
:101C540001300310C20DFF3E031D2B2E0310420D55
:101C6400353E84000A128A110D200A128A15C30017
:101C74000A128A110D200A128A15C4000A128A1146
:101C84000D200A128A15C5000A128A110D200A12A3
:101C94008A15C6004608C1004508C0004408BF00B4
:101CA4004308BE00FF2F5008803A123E031C5B2EEF
:101CB4005C2E442F0A30F7000030F8005008F20080
:101CC400F301F21BF3036430F0000030F1000A1654
:101CD4008A15E8230A128A157108FA007008F900B7
:101CE4000A168A15C4250A128A1577088312031363
:101CF400C20001300310C20DFF3E031D7C2E0310F1
:101D0400420D253E84000A128A110D200A128A15FA
:101D1400C3000A128A110D200A128A15C4000A127D
:101D24008A110D200A128A15C5000A128A110D2083
:101D34000A128A15C6004608A7004508A6004408EA
:101D4400A5004308A4006430F7000030F8005008F0
:101D5400F900FA01F91BFA030A168A15C4250A12B6
:101D64008A15770883120313C70001300310C70DC7
:101D7400FF3E031DB82E0310470D493E84000A128E
:101D84008A110D200A128A15C8000A128A110D2020
:101D94000A128A15C9000A128A110D200A128A151C
:101DA400CA000A128A110D200A128A15CB004B08A8
:101DB400AB004A08AA004908A9004808A8000A126A
:101DC4008A155C210A128A15831203132708CF008F
:101DD4002608CE002508CD002408CC000A30F000E7
:101DE4000030F1005008F200F301F21BF3030A166D
:101DF4008A15E8230A128A15700883120313C20095
:101E040001300310C20DFF3E031D032F0310420DCA
:101E1400013E84000A128A110D200A128A15C30099
:101E24000A128A110D200A128A15C4000A128A1194
:101E34000D200A128A15C5000A128A110D200A12F1
:101E44008A15C6004608A7004508A6004408A50050
:101E54004308A4004F08AB004E08AA004D08A9008F
:101E64004C08A8000A128A155C210A128A158312EA
:101E740003132708C1002608C0002508BF00240852
:101E8400BE00FF2F5008803A753E031C4A2F4B2F8B
:101E9400D32F0A30F0000030F1005008F200F301B3
:101EA400F21BF3030A168A15E8230A128A1570082E
:101EB40083120313C20001300310C20DFF3E031D41
:101EC4005E2F0310420D013E84000A128A110D2078
:101ED4000A128A15C3000A128A110D200A128A15E1
:101EE400C4000A128A110D200A128A15C5000A12AA
:101EF4008A110D200A128A15C6004608A700450853
:101F0400A6004408A5004308A4000A30F7000030E6
:101F1400F8005008F900FA01F91BFA030A168A15A9
:101F2400C4250A128A15770883120313C7000130E7
:101F34000310C70DFF3E031D9A2F0310470D253EC6
:101F440084000A128A110D200A128A15C8000A1286
:101F54008A110D200A128A15C9000A128A110D204D
:101F64000A128A15CA000A128A110D200A128A1549
:101F7400CB004B08AB004A08AA004908A90048084E
:101F8400A8000A128A155C210A128A158312031307
:101F94002708C1002608C0002508BF002408BE0089
:101FA400FF2F5008C20001300310C20DFF3E031D75
:101FB400D62F0310420D013E84000A128A110D200F
:101FC4000A128A15C3000A128A110D200A128A15F0
:101FD400C4000A128A110D200A128A15C5000A12B9
:101FE4008A110D200A128A15C6004608C100450848
:0C1FF400C0004408BF004308BE00080005
:1020080000300A168A1522210A168A1101300A168A
:102018008A1522210A168A11080003108312031355
:10202800530D540DDA005A08031D1B281C282528B7
:102038000030D4000030D3000030D2000030D1008E
:1020480088285108D5005208D6005308D7005408EC
:10205800D8001F300310D80CD70CD60CD50CFF3E77
:10206800031D2E285508D900D317FF30D105FF309E
:10207800D205FF30D3050030D4059630DA02DA1FD6
:102088004628472861285A08803A973E03184D2861
:102098004E284F281C2801300310D40CD30CD20C26
:1020A800D10CFF3E031D50280130D5005508DA0732
:1020B800031D5F2860284F28782820305A02031C07
:1020C8006628672873281C280130D5000310D10D15
:1020D800D20DD30DD40DD50B6A280130DA025A0877
:1020E800031D772878286828590803197C287D2833
:1020F8008828D109D209D309D409D10A0319D20AE7
:102108000319D30A0319D40A08007008F8007108E3
:10211800F9007208FA000310790D7A0D831203137F
:10212800A5002508031D99289A28A3280030F30044
:102138000030F2000030F1000030F0003F29740850
:10214800F8007508F9007608FA000310790D7A0D81
:10215800A4002408031DB128B228B3289A28F1172F
:10216800FF30F005FF30F1050030F205F517FF30BC
:10217800F405FF30F5050030F6050030A300003007
:10218800A2000030A1000030A0007F30A5029830E6
:102198002407F8007808A5021830A4000130F800D8
:1021A8000310A00DA10DA20DA30DF80BD4287608DD
:1021B8007202031DE52875087102031DE5287408DD
:1021C8007002031CE828E928F4287408F00275084E
:1021D800031C750FF1027608031C760AF20220141C
:1021E80001300310F00DF10DF20DFF3E031DF5282F
:1021F8000130A402031D01290229D228A51F05299F
:10220800062920292508803A973E03180C290D290C
:102218000E299A2801300310A30CA20CA10CA00CC3
:10222800FF3E031D0F290130F8007808A507031D9C
:102238001E291F290E29372918302502031C252994
:10224800262932299A280130F8000310A00DA10D83
:10225800A20DA30DF80B29290130A5022508031D9D
:102268003629372927292308F3002208F2002108F4
:10227800F1002008F000080083120313D1006E302B
:102288005102031C48294929562A3F30A70000302B
:10229800A6000030A5000030A4006430F60000302D
:1022A800F7005108C200C3014208F8004308F900CA
:1022B8000A168A156C220A168A11760883120313E5
:1022C800C40001300310C40DFF3E031D662903102E
:1022D800440D7D3E84000A128A110D200A168A11C7
:1022E800C5000A128A110D200A168A11C6000A12A0
:1022F8008A110D200A168A11C7000A128A110D20A8
:102308000A168A11C8004808AB004708AA00460800
:10231800A9004508A8000A128A155C210A168A1124
:10232800831203132708D0002608CF002508CE0003
:102338002408CD000A30F6000030F7005108C2002A
:10234800C3014208F2004308F3006430F000003093
:10235800F1000A168A15F0210A168A117108F90087
:102368007008F8000A168A156C220A168A1176086F
:1023780083120313C40001300310C40DFF3E031D74
:10238800C0290310440D593E84000A128A110D20F9
:102398000A168A11C5000A128A110D200A168A1116
:1023A800C6000A128A110D200A168A11C7000A12DD
:1023B8008A110D200A168A11C8004808A700470884
:1023C800A6004608A5004508A4005008AB004F0821
:1023D800AA004E08A9004D08A8000A128A155C2117
:1023E8000A168A11831203132708CC002608CB008B
:1023F8002508CA002408C9000A30F0000030F1009E
:102408005108C200C3014208F2004308F3000A164B
:102418008A15F0210A168A11700883120313C40062
:1024280001300310C40DFF3E031D152A0310440D8F
:10243800353E84000A128A110D200A168A11C50039
:102448000A128A110D200A168A11C6000A128A1168
:102458000D200A168A11C7000A128A110D200A16C1
:102468008A11C8004808A7004708A6004608A50022
:102478004508A4004C08AB004B08AA004A08A9006C
:102488004908A8000A128A155C210A168A118312C3
:1024980003132708C1002608C0002508BF00240828
:1024A800BE004A2B0B305102031C5B2A5C2A072B07
:1024B8003F30A7000030A6000030A5000030A4007F
:1024C8000A30F6000030F7005108C200C301420884
:1024D800F8004308F9000A168A156C220A168A11B0
:1024E800760883120313C40001300310C40DFF3EA5
:1024F800031D792A0310440D593E84000A128A11DB
:102508000D200A168A11C5000A128A110D200A1612
:102518008A11C6000A128A110D200A168A11C700EC
:102528000A128A110D200A168A11C8004808AB0041
:102538004708AA004608A9004508A8000A128A15F3
:102548005C210A168A11831203132708D000260873
:10255800CF002508CE002408CD000A30F000003056
:10256800F1005108C200C3014208F2004308F30019
:102578000A168A15F0210A168A11700883120313A5
:10258800C40001300310C40DFF3E031DC62A03100A
:10259800440D353E84000A128A110D200A168A114C
:1025A800C5000A128A110D200A168A11C6000A12DD
:1025B8008A110D200A168A11C7000A128A110D20E5
:1025C8000A168A11C8004808A7004708A600460846
:1025D800A5004508A4005008AB004F08AA004E0803
:1025E800A9004D08A8000A128A155C210A168A114A
:1025F800831203132708C1002608C0002508BF005E
:102608002408BE004A2B3F30A7000030A600003047
:10261800A5000030A4005108C20001300310C20D0B
:10262800FF3E031D122B0310420D353E84000A1293
:102638008A110D200A168A11C3000A128A110D2068
:102648000A168A11C4000A128A110D200A168A1164
:10265800C5000A128A110D200A168A11C6004608FA
:10266800AB004508AA004408A9004308A8000A12BC
:102678008A155C210A168A11831203132708C100E0
:102688002608C0002508BF002408BE0008008312E1
:10269800031355088039E2005508DA005A07E400A8
:1026A800D41F572B582B592B6414640803195D2B1E
:1026B8005E2B6E2B640A031D622B632B6B2B003081
:1026C800D5000030D4000030D3000030D200D41739
:1026D800D501762B0030D5000030D4000030D3006F
:1026E8000030D20059088039E300630862060319F4
:1026F8007E2B7F2B802B62175908DA005A07E300DC
:10270800D81F872B882B892B6314630803198D2BFB
:102718008E2B9E2B630A031D922B932B9B2B003031
:10272800D9000030D8000030D7000030D600D817C4
:10273800D901A62B0030D9000030D8000030D700CE
:102748000030D600640863020318AB2BAC2BD22BE5
:10275800621FAF2BB02BB42B8030DA005A08E20688
:102768006408E5006308E4006508E3005208E50032
:102778005608D2006508D6005308E5005708D3006C
:102788006508D7005408E5005808D4006508D80043
:102798005508E5005908D5006508D900E501630822
:1027A800DA00DB015B08DD0064085A02DC00031C68
:1027B800DD035D08803AFF0080307F02031DE62BB1
:1027C8001A305C02031CE92BEA2B212C8312031319
:1027D8005508540453045204031DF32BF52B013000
:1027E800F62B0030E5000030D5000030D400003072
:1027F800D3000030D2006308E400292C651C052CA6
:10280800062C0D2C6508DA0003105A0C0138E50077
:102818000F2C0310E50C521C122C132C142CE5174A
:102828000130DA00550DD50CD40CD30CD20CDA0BD0
:10283800162C0130DA005A08E407831203136308E0
:102848006402031C282C292C022C621B2C2C2D2CF6
:10285800762C6408031D312C322C3B2C0030D5001B
:102868000030D4000030D3000030D200A22D56082A
:10287800D207570803110318013E0319442CD30744
:10288800580803110318013E03194B2CD4075908A3
:1028980003110318013E0319522CD507551C552C5A
:1028A800562C2A2D651C592C5A2C612C6508DA00E7
:1028B80003105A0C0138E500632C0310E50C521C78
:1028C800662C672C682CE5170130DA00550DD50CFD
:1028D800D40CD30CD20CDA0B6A2C0130DA005A086B
:1028E800E4072A2D5508803AFF005908803A7F02EC
:1028F800031D882C58085402031D882C57085302BE
:10290800031D882C5608520203188B2C8C2CE42C9F
:10291800FF30DA00FF30DB00FF30DC00FF30DD0085
:102928005608DE005708DF005808E0005908E100A3
:102938005208DE025308031C530FA32CA42CDF02F9
:102948005408031C540FA92CAA2CE0025508031C98
:10295800550FAF2CB02CE1025E08DA075F080318A8
:102968005F0FB72CB82CDB0760080318600FBD2C6D
:10297800BE2CDC0761080318610ADD075D08D50075
:102988005C08D4005B08D3005A08D2008030DA0013
:102998005A08E206E509E50A6508031DD42CD52C7A
:1029A800F22C0130D207003003180130D307003071
:1029B80003180130D407003003180130D507F22C72
:1029C8005608D2025708031C570FD3025808031C95
:1029D800580FD4025908031C590FD502550854043E
:1029E80053045204031DF92CFA2C262D6508031DE7
:1029F800FE2CFF2C262D0030D5000030D4000030EE
:102A0800D3000030D200A22D0130DA000310D20D1D
:102A1800D30DD40DD50DDA0B0A2DE51F142D152D68
:102A2800162D5214651C192D1A2D1D2D0314E50D94
:102A38001F2D0310E50D64080319232D242D262DC1
:102A48000130E402D41F292D2A2D082DE301E51FAA
:102A58002E2D2F2D3D2D65087F390319342D352D49
:102A6800382DE301E30A3D2D521C3B2D3C2D3D2D15
:102A7800352D63080319412D422D762D0130D207DB
:102A8800003003180130D307003003180130D40791
:102A9800003003180130D507551C532D542D762DC1
:102AA8005208DA005308DB005408DC005508DD0042
:102AB8000130DE005D0DDD0CDC0CDB0CDA0CDE0B0E
:102AC8005E2D5D08D5005C08D4005B08D3005A0869
:102AD800D200640A0319712D722D762D0130DA00A7
:102AE8005A08E407640A03197A2D7B2D802D64089F
:102AF800031D7F2D802D8E2D0030D5000030D40091
:102B08000030D3000030D2006408031D8C2D8D2DB9
:102B18008E2DE201641C912D922D942DD417982DA1
:102B28007F30DA005A08D4056408DA0003105A0C1A
:102B3800D500E21FA02DA12DA22DD5170800053024
:102B48000A168A159E240A168A110A168A155E2103
:102B58000A168A110A168A1541240A168A110A16B3
:102B68008A1104200A168A110230F40001300A166C
:102B78008A15B0220A168A119130F5008030F600C5
:102B88000A168A152A220A168A11F401F40A023052
:102B98000A168A15B0220A168A11A030F50080306C
:102BA800F6000A168A152A220A168A1183120313B6
:102BB8009301073083160313C4007C30C300C30B92
:102BC800E32DC40BE32D0000831203130514073013
:102BD80083160313C4007C30C300C30BF12DC40B50
:102BE800F12D000083120313051001300A168A150F
:102BF800D1200A168A1183160313141C042E052EDD
:102C0800FF2D83120313130883160313C300C40193
:102C18004308CF004408D000831203130514023080
:102C2800A4000030A5008316031350088312031371
:102C3800A700831603134F0883120313A6000A166E
:102C48008A15FD240A168A110A168A1544230A16BB
:102C58008A1183160313D1000D30F40002300A16CE
:102C68008A15B0220A168A118316031351080A120C
:102C78008A11C8200A168A11013083120313A4008E
:102C88000030A50083160313500883120313A7000E
:102C9800831603134F0883120313A6000A168A1516
:102CA800FD240A168A110A168A1544230A168A115F
:102CB80083160313D2000E30F40002300A168A1568
:102CC800B0220A168A118316031352080A128A11AF
:102CD800C8200A168A11003083120313A400A50025
:102CE80083160313500883120313A70083160313D4
:102CF8004F0883120313A6000A168A15FD240A1624
:102D08008A110A168A1544230A168A118316031390
:102D1800D3000F30F40002300A168A15B0220A16C2
:102D28008A118316031353080A128A11C8200A1637
:102D38008A11073083160313C4007C30C300C30B09
:102D4800A32EC40BA32E000083120313051000301A
:102D58000A168A15D1200A168A1183160313141C21
:102D6800B62EB72EB12E831203131308831603133E
:102D7800D500073083160313C4007C30C300C30B8F
:102D8800C32EC40BC32E0000831203130514433053
:102D9800C1007F30C0000030BF000030BE004030AE
:102DA800A700A030A6000030A5000030A4008316BC
:102DB80003135508C300C401C501C6014608F30042
:102DC8004508F2004408F1004308F00001300A12F7
:102DD8008A15A4200A168A11730883120313AB00FC
:102DE8007208AA007108A9007008A8000A128A15BA
:102DF8005C210A168A11831203132708C5002608C6
:102E0800C4002508C3002408C2000A168A152D2606
:102E18000A168A1183120313410883160313CE007E
:102E280083120313400883160313CD008312031380
:102E38003F0883160313CC00831203133E0883163E
:102E48000313CB00AE30A0004E08A4004D08A30029
:102E58004C08A2004B08A100D9300A128A11B321EC
:102E68000A168A11F401F40A02300A168A15B022E9
:102E78000A168A11D930F5000030F6000A168A15AC
:102E88002A220A168A11073083160313C4007C30DD
:102E9800C300C30B4D2FC40B4D2F00008312031327
:102EA800851000300A168A15D1200A168A11831651
:102EB8000313141C602F612F5B2F0A168A15E62056
:102EC8000A168A1183160313D400073083160313D6
:102ED800C4007C30C300C30B6F2FC40B6F2F0000DE
:102EE800831203138514A53083160313C300C30B81
:102EF8007B2F7E2F433083120313C1007F30C00025
:102F08000030BF000030BE004030A700A030A6004F
:102F18000030A5000030A400831603135408C30032
:102F2800C401C501C6014608F3004508F20044087B
:102F3800F1004308F00001300A128A15A4200A168D
:102F48008A11730883120313AB007208AA00710870
:102F5800A9007008A8000A128A155C210A168A11AD
:102F6800831203132708C5002608C4002508C300D8
:102F78002408C2000A168A152D260A168A118312F9
:102F88000313410883160313CA008312031340086E
:102F980083160313C900831203133F088316031310
:102FA800C800831203133E0883160313C700AE300C
:102FB800A0004A08A4004908A3004808A20047083E
:102FC800A100D6300A128A11B3210A168A110730D5
:102FD800F40002300A168A15B0220A168A11D63071
:102FE800F5000030F6000A168A152A220A168A11F8
:082FF800DD2D0A128A110028E8
:1031A200F0007008831203139300080083160313C0
:1031B200141CDC28DD28D728080064008001840A5A
:1031C2000406031900340406DF280A168A15D720DC
:1031D2000A168A158312031313080800730872046F
:1031E200710470040319F628F728F9288030F306D1
:1031F2000800F100F0013A30710203180129022996
:103202000A2930307102031C072908290A29F00112
:10321200F00A700C0800F300831603138712731D63
:103222001329142918297208940087151C2970087B
:1032320072049400871173087104831203139400BB
:103242000800F30083120313081173080A168A1583
:103252003C210A168A158312031388150630F200E0
:103262003030F100F10B3329F20B332900008312C5
:10327200031388110800F000701C402941294529D8
:103282008312031308164829831203130812F01C31
:103292004B294C294E2988164F298812701D522914
:1032A20053295529081756290813F01D59295A2957
:1032B2005C2988175D298813080083160317880183
:1032C200890183160313880183120313880183166D
:1032D20003138601831203138601831603138501E8
:1032E20083120313850105148514F001F101F20123
:1032F20020300A168A150C210A168A150800803019
:1033020083120313E9066D08D5006C08D4006B081C
:10331200D3006A08D2006908D9006808D800670893
:10332200D7006608D6000A168A114B230A168A1598
:10333200831203135508E9005408E8005308E70014
:103342005208E6000800F401F501701CA929AA2917
:10335200B0297208F4070318F50A7308F50701305B
:103362000310F20DF30DFF3E031DB12901300310CE
:10337200F10CF00CFF3E031DB82970087104031D07
:10338200C329C429A6297508F1007408F0000800B1
:10339200F800F401F5017008F200F3017208F6007A
:1033A2007308F700781CD629D729DD297608F40797
:1033B2000318F50A7708F50701300310F60DF70D2B
:1033C200FF3E031DDE290310F80C7808031DEA29CD
:1033D200EB29D3297508F1007408F0000800700881
:1033E20071040319F529F629252AF501F50A042A9B
:1033F20001300310F00DF10DFF3E031DFA290130DB
:10340200F4007408F507F11F072A082AF929710840
:103412007302031D0E2A70087202031C112A122A5B
:10342200182A7008F2027108031CF303F302013038
:103432000310F10CF00CFF3E031D192A0130F502B6
:10344200031D242A252A082A7308F1007208F000B5
:103452000800FA01FB014F2A7A087507F80076087E
:10346200F7000318F70AFA1F372AF7037708F9005B
:10347200790883120313FF00780884000A128A1164
:1034820003200A168A150A128A11C8200A168A15FA
:103492000130FA070318FB0A0030FB077A087507A8
:1034A200F8007608F7000318F70AFA1F592AF703FB
:1034B2007708F900790883120313FF007808840063
:1034C2000A128A1103200A168A15003A031D6A2A73
:1034D2006B2A2D2A0800FB01FC01760877040319E8
:1034E200732A742AAB2AFD01FD0A822A01300310D5
:1034F200F60DF70DFF3E031D782A0130FA007A0817
:10350200FD07F71F852A862A772A01300310FB0D53
:10351200FC0DFF3E031D872A77087902031D932ABB
:1035220076087802031C962A972A9E2A7608F802C1
:103532007708031CF903F9027B1401300310F70C1E
:10354200F60CFF3E031D9F2A0130FD02031DAA2A2D
:10355200AB2A862A7C08F7007B08F6000800F600F2
:103562007603031DB52AB62AD32A74087F3EF900D2
:103572007908F50004300310F50CFF3E031DBC2A48
:103582007508F70079080F39F80077080A168A15C6
:1035920022210A168A1578080A168A1522210A1685
:1035A2008A15F52A02307606031DD82AD92AF52A69
:1035B2007408BF3EF9007908F50004300310F50CD9
:1035C200FF3E031DDF2A7508F70079080F39F8005E
:1035D20077080A168A1522210A168A1578080A1609
:1035E2008A1522210A168A15080000307005F80093
:1035F20000307105F90080307205FA007F307305E2
:10360200FB007B087A0479047804031D092B0A2B3A
:10361200122B0030F3000030F2000030F1000030D5
:10362200F00000307405F80000307505F9008030B4
:103632007605FA007F307705FB007B087A0479046F
:103642007804031D252B262B2E2B0030F70000308B
:10365200F6000030F5000030F40077087306031D11
:103662003C2B76087206031D3C2B75087106031D60
:103672003C2B7408700603193F2B402B422B03107E
:10368200432B03140800F0007008031D492B4A2B3A
:103692004C2B3030932B7003031D502B512B532B8B
:1036A2003130932B02307006031D582B592B5B2BA4
:1036B2003230932B03307006031D602B612B632B7A
:1036C2003330932B04307006031D682B692B6B2B50
:1036D2003430932B05307006031D702B712B732B26
:1036E2003530932B06307006031D782B792B7B2BFC
:1036F2003630932B07307006031D802B812B832BD2
:103702003730932B08307006031D882B892B8B2BA7
:103712003830932B09307006031D902B912B932B7D
:103722003930932B08007308720471047004031972
:103732009B2B9C2BDF2BF901F90AAC2B0130F800F3
:103742000310F00DF10DF20DF30DF80BA12B01306A
:10375200F8007808F907F31FAF2BB02B9F2B7308E3
:103762007702031DBE2B72087602031DBE2B710861
:103772007502031DBE2B70087402031CC12BC22BE1
:10378200D02B7008F4027108031C710FF502720845
:10379200031C720FF6027308031C730FF702013049
:1037A2000310F30CF20CF10CF00CFF3E031DD12BB5
:1037B2000130F902031DDE2BDF2BB02B7708F3005B
:1037C2007608F2007508F1007408F0000800F601AE
:1037D200F31FEC2BED2BF42BF209F309F20A031978
:1037E200F30AF601F60AF11FF72BF82BFD2BF0096D
:1037F200F109F00A0319F10A700871040319022C85
:10380200032C322CF501F50A112C01300310F00DB6
:10381200F10DFF3E031D072C0130F4007408F5077B
:10382200F11F142C152C062C71087302031D1B2C7E
:1038320070087202031C1E2C1F2C252C7008F20229
:103842007108031CF303F30201300310F10CF00CB6
:10385200FF3E031D262C0130F502031D312C322CB4
:10386200152C76080319362C372C3C2CF209F30957
:10387200F20A0319F30A7308F1007208F000080053
:1038820000300A168A153C210A168A151A30F500EC
:10389200F830F400F40B4B2CF50B4B2C00000330EA
:1038A2000A168A1522210A168A150730F5007D307C
:1038B200F400F40B5A2CF50B5A2C03300A168A1515
:1038C20022210A168A150F30F5004730F400F40B56
:1038D200682CF50B682C6D2C03300A168A152221F0
:1038E2000A168A1502300A168A1522210A168A1524
:1038F20002300A168A1522210A168A1508300A167B
:103902008A1522210A168A1500300A168A152221E2
:103912000A168A150C300A168A1522210A168A15E9
:1039220000300A168A1522210A168A1506300A164E
:103932008A1522210A168A150800F000073070063F
:10394200031DA42CA52CA92C7030831603138F04FD
:1039520006307006031DAE2CAF2CB52C8316031354
:103962000F088F3960388F0005307006031DBA2C9E
:10397200BB2CC12C831603130F088F3950388F00CC
:1039820004307006031DC62CC72CCD2C83160313DE
:103992000F088F3940388F0003307006031DD22C78
:1039A200D32CD92C831603130F088F3930388F008C
:1039B20002307006031DDE2CDF2CE52C8316031368
:1039C2000F088F3920388F007003031DE92CEA2C71
:1039D200F02C831603130F088F3910388F007008EC
:1039E200031DF42CF52CF92C8F30831603138F054D
:1039F200831603130F1408006430F6000030F7003A
:103A0200831203132708F9002608F8000A168A15FC
:103A12006C220A168A15760883120313AA006430F0
:103A2200F0000030F1002708F3002608F2000A1621
:103A32008A15F0210A168A15700883120313AC0046
:103A42000A30F0000030F1002C08A800A901280873
:103A5200F2002908F3000A168A15E8230A168A15C5
:103A6200700883120313AB00023024062504031DE1
:103A72003B2D3C2D3E2D2A085D2D24032504031DDC
:103A8200432D442D562D0A30F7000030F8002C0843
:103A9200A800A9012808F9002908FA000A168A15BF
:103AA200C4250A168A1577085D2D24082504031DEE
:103AB2005B2D5C2D5D2D2B0808000030FC000030D2
:103AC200FB000030FA000030F90073087204710440
:103AD200700403196D2D6E2DBB2DFD01FD0A7E2D87
:103AE2000130F8000310F00DF10DF20DF30DF80B9B
:103AF200732D0130F8007808FD07F31F812D822D08
:103B0200712D0130F8000310F90DFA0DFB0DFC0DBB
:103B1200F80B842D73087702031D992D7208760223
:103B2200031D992D71087502031D992D70087402E9
:103B3200031C9C2D9D2DAC2D7008F4027108031CF2
:103B4200710FF5027208031C720FF6027308031C50
:103B5200730FF702791401300310F30CF20CF10C1D
:103B6200F00CFF3E031DAD2D0130FD02031DBA2DE9
:103B7200BB2D822D7C08F3007B08F2007A08F1004D
:103B82007908F000080083120313A101F81FCA2D5F
:103B9200CB2DD22DF709F809F70A0319F80AA1016A
:103BA200A10AFA1FD52DD62DDF2DF909FA09F90A36
:103BB2000319FA0A0130FB007B08A106A201A30146
:103BC200770878040319E62DE72D1E2EA001A00A1E
:103BD200F52D01300310F70DF80DFF3E031DEB2DFF
:103BE2000130FB007B08A007F81FF82DF92DEA2D04
:103BF20001300310A20DA30DFF3E031DFA2D78081C
:103C02007A02031D062E77087902031C092E0A2E5A
:103C1200112E7708F9027808031CFA03FA0222141B
:103C220001300310F80CF70CFF3E031D122E013079
:103C3200A002031D1D2E1E2EF92D21080319222E6E
:103C4200232E282EA209A309A20A0319A30A2308D4
:103C5200F8002208F7000800831203134508803990
:103C6200CF004508C6004607D600C41F392E3A2E9B
:103C72003B2E5614560803193F2E402E502E560A3C
:103C8200031D442E452E4D2E0030C5000030C400C9
:103C92000030C3000030C200C417C501582E0030E6
:103CA200C5000030C4000030C3000030C20041082B
:103CB2008039C6004608CF064108C6004607D7002D
:103CC200C01F642E652E662E5714570803196A2EDC
:103CD2006B2E7B2E570A031D6F2E702E782E00300E
:103CE200C1000030C0000030BF000030BE00C0176D
:103CF200C101832E0030C1000030C0000030BF007F
:103D02000030BE00410840043F043E04031D8A2ED9
:103D12008B2EA42E0030C5000030C4000030C3003A
:103D22000030C2008030C4047F30C5044F08C60092
:103D32004608C5044508C1004408C0004308BF0046
:103D42004208BE00FF2F5608031DA82EA92EB22E30
:103D52000030C1000030C0000030BF000030BE00A3
:103D6200FF2F5608C600C7014708C9005708460278
:103D7200C800031CC90348087F3ED0004908031845
:103D8200013E003ED1004508CE004408CD00430864
:103D9200CC004208CB000030C5000030C400003027
:103DA200C3000030C2000030D5000030D400003023
:103DB200D3000030D200D701282F57080319E22E72
:103DC200E32E032F0130C6000310CB0DCC0DCD0D19
:103DD200CE0DC60BE52E0130C6000310C20DC30D79
:103DE200C40DC50DC60BEE2ED51FF82EF92EFA2ED8
:103DF20042140130C6000310D20DD30DD40DD50DDF
:103E0200C60BFC2E41084E02031D112F40084D0225
:103E1200031D112F3F084C02031D112F3E084B02B8
:103E2200031C142F152F242F55173E08CB023F08D1
:103E3200031C3F0FCC024008031C400FCD02410877
:103E4200031C410FCE020130C6004608D7071A30C4
:103E52005702031C2D2F2E2FDE2E4E084D044C042C
:103E62004B040319352F362F552F5214552F01307D
:103E7200C6000310C20DC30DC40DC50DC60B3A2FEB
:103E8200D51F442F452F462F42140130C600031080
:103E9200D20DD30DD40DD50DC60B482FFF30D00750
:103EA2000318D10AFF30D107C41F582F592F382FBA
:103EB200D701D51F5D2F5E2F7A2FFF305205C60026
:103EC200FF305305C700FF305405C8007F30550549
:103ED200C90049084804470446040319712F722F88
:103EE200752FD701D70A7A2F421C782F792F7A2F74
:103EF200722F570803197E2F7F2FB02F0130C20770
:103F0200003003180130C307003003180130C40722
:103F1200003003180130C507451C902F912FB02F98
:103F22004208C6004308C7004408C8004508C90043
:103F32000130CA00490DC90CC80CC70CC60CCA0B0B
:103F42009B2F4908C5004808C4004708C30046081B
:103F5200C2000130D0070318D10A0030D10751083E
:103F6200803AFF0080307F02031DB92FFF305002DC
:103F7200031CBC2FBD2FCB2FFF3083120313D000A5
:103F82000030D1000030C5000030C4000030C30052
:103F92000030C200831203135108803AFF008030C0
:103FA2007F02031DD62F013050020318D92FDA2FBA
:103FB200E72F83120313D001D1010030C500003076
:103FC200C4000030C3000030C200CF0183120313CB
:103FD2005008D600561CEE2FEF2FF12FC417F52FE5
:103FE2007F30C6004608C4055608C6000310460CBA
:103FF200C5004F08C6004608C5049B2E0800FF3FB7
:06400200FF3FFF3FFF3FFE
:04400E00D420FF3F7C
:00000001FF
